{
    "contractName": "ExchangeSimpleV2",
    "abi": [
        {
            "anonymous": false,
            "inputs": [
                {
                    "indexed": false,
                    "internalType": "bytes32",
                    "name": "hash",
                    "type": "bytes32"
                }
            ],
            "name": "Cancel",
            "type": "event"
        },
        {
            "anonymous": false,
            "inputs": [
                {
                    "indexed": false,
                    "internalType": "bytes32",
                    "name": "leftHash",
                    "type": "bytes32"
                },
                {
                    "indexed": false,
                    "internalType": "bytes32",
                    "name": "rightHash",
                    "type": "bytes32"
                },
                {
                    "indexed": false,
                    "internalType": "uint256",
                    "name": "newLeftFill",
                    "type": "uint256"
                },
                {
                    "indexed": false,
                    "internalType": "uint256",
                    "name": "newRightFill",
                    "type": "uint256"
                }
            ],
            "name": "Match",
            "type": "event"
        },
        {
            "anonymous": false,
            "inputs": [
                {
                    "indexed": true,
                    "internalType": "bytes4",
                    "name": "assetType",
                    "type": "bytes4"
                },
                {
                    "indexed": false,
                    "internalType": "address",
                    "name": "matcher",
                    "type": "address"
                }
            ],
            "name": "MatcherChange",
            "type": "event"
        },
        {
            "anonymous": false,
            "inputs": [
                {
                    "indexed": true,
                    "internalType": "address",
                    "name": "previousOwner",
                    "type": "address"
                },
                {
                    "indexed": true,
                    "internalType": "address",
                    "name": "newOwner",
                    "type": "address"
                }
            ],
            "name": "OwnershipTransferred",
            "type": "event"
        },
        {
            "anonymous": false,
            "inputs": [
                {
                    "indexed": true,
                    "internalType": "bytes4",
                    "name": "assetType",
                    "type": "bytes4"
                },
                {
                    "indexed": false,
                    "internalType": "address",
                    "name": "proxy",
                    "type": "address"
                }
            ],
            "name": "ProxyChange",
            "type": "event"
        },
        {
            "inputs": [
                {
                    "internalType": "address",
                    "name": "_transferProxy",
                    "type": "address"
                },
                {
                    "internalType": "address",
                    "name": "_erc20TransferProxy",
                    "type": "address"
                }
            ],
            "name": "__ExchangeSimpleV2_init",
            "outputs": [],
            "stateMutability": "nonpayable",
            "type": "function"
        },
        {
            "inputs": [
                {
                    "components": [
                        {
                            "internalType": "address",
                            "name": "maker",
                            "type": "address"
                        },
                        {
                            "components": [
                                {
                                    "components": [
                                        {
                                            "internalType": "bytes4",
                                            "name": "assetClass",
                                            "type": "bytes4"
                                        },
                                        {
                                            "internalType": "bytes",
                                            "name": "data",
                                            "type": "bytes"
                                        }
                                    ],
                                    "internalType": "struct LibAsset.AssetType",
                                    "name": "assetType",
                                    "type": "tuple"
                                },
                                {
                                    "internalType": "uint256",
                                    "name": "value",
                                    "type": "uint256"
                                }
                            ],
                            "internalType": "struct LibAsset.Asset",
                            "name": "makeAsset",
                            "type": "tuple"
                        },
                        {
                            "internalType": "address",
                            "name": "taker",
                            "type": "address"
                        },
                        {
                            "components": [
                                {
                                    "components": [
                                        {
                                            "internalType": "bytes4",
                                            "name": "assetClass",
                                            "type": "bytes4"
                                        },
                                        {
                                            "internalType": "bytes",
                                            "name": "data",
                                            "type": "bytes"
                                        }
                                    ],
                                    "internalType": "struct LibAsset.AssetType",
                                    "name": "assetType",
                                    "type": "tuple"
                                },
                                {
                                    "internalType": "uint256",
                                    "name": "value",
                                    "type": "uint256"
                                }
                            ],
                            "internalType": "struct LibAsset.Asset",
                            "name": "takeAsset",
                            "type": "tuple"
                        },
                        {
                            "internalType": "uint256",
                            "name": "salt",
                            "type": "uint256"
                        },
                        {
                            "internalType": "uint256",
                            "name": "start",
                            "type": "uint256"
                        },
                        {
                            "internalType": "uint256",
                            "name": "end",
                            "type": "uint256"
                        },
                        {
                            "internalType": "bytes4",
                            "name": "dataType",
                            "type": "bytes4"
                        },
                        {
                            "internalType": "bytes",
                            "name": "data",
                            "type": "bytes"
                        }
                    ],
                    "internalType": "struct LibOrder.Order",
                    "name": "order",
                    "type": "tuple"
                }
            ],
            "name": "cancel",
            "outputs": [],
            "stateMutability": "nonpayable",
            "type": "function"
        },
        {
            "inputs": [
                {
                    "components": [
                        {
                            "internalType": "address",
                            "name": "bidMaker",
                            "type": "address"
                        },
                        {
                            "internalType": "uint256",
                            "name": "bidNftAmount",
                            "type": "uint256"
                        },
                        {
                            "internalType": "bytes4",
                            "name": "nftAssetClass",
                            "type": "bytes4"
                        },
                        {
                            "internalType": "bytes",
                            "name": "nftData",
                            "type": "bytes"
                        },
                        {
                            "internalType": "uint256",
                            "name": "bidPaymentAmount",
                            "type": "uint256"
                        },
                        {
                            "internalType": "address",
                            "name": "paymentToken",
                            "type": "address"
                        },
                        {
                            "internalType": "uint256",
                            "name": "bidSalt",
                            "type": "uint256"
                        },
                        {
                            "internalType": "uint256",
                            "name": "bidStart",
                            "type": "uint256"
                        },
                        {
                            "internalType": "uint256",
                            "name": "bidEnd",
                            "type": "uint256"
                        },
                        {
                            "internalType": "bytes4",
                            "name": "bidDataType",
                            "type": "bytes4"
                        },
                        {
                            "internalType": "bytes",
                            "name": "bidData",
                            "type": "bytes"
                        },
                        {
                            "internalType": "bytes",
                            "name": "bidSignature",
                            "type": "bytes"
                        },
                        {
                            "internalType": "uint256",
                            "name": "sellOrderPaymentAmount",
                            "type": "uint256"
                        },
                        {
                            "internalType": "uint256",
                            "name": "sellOrderNftAmount",
                            "type": "uint256"
                        },
                        {
                            "internalType": "bytes",
                            "name": "sellOrderData",
                            "type": "bytes"
                        }
                    ],
                    "internalType": "struct LibDirectTransfer.AcceptBid",
                    "name": "direct",
                    "type": "tuple"
                }
            ],
            "name": "directAcceptBid",
            "outputs": [],
            "stateMutability": "payable",
            "type": "function"
        },
        {
            "inputs": [
                {
                    "components": [
                        {
                            "internalType": "address",
                            "name": "sellOrderMaker",
                            "type": "address"
                        },
                        {
                            "internalType": "uint256",
                            "name": "sellOrderNftAmount",
                            "type": "uint256"
                        },
                        {
                            "internalType": "bytes4",
                            "name": "nftAssetClass",
                            "type": "bytes4"
                        },
                        {
                            "internalType": "bytes",
                            "name": "nftData",
                            "type": "bytes"
                        },
                        {
                            "internalType": "uint256",
                            "name": "sellOrderPaymentAmount",
                            "type": "uint256"
                        },
                        {
                            "internalType": "address",
                            "name": "paymentToken",
                            "type": "address"
                        },
                        {
                            "internalType": "uint256",
                            "name": "sellOrderSalt",
                            "type": "uint256"
                        },
                        {
                            "internalType": "uint256",
                            "name": "sellOrderStart",
                            "type": "uint256"
                        },
                        {
                            "internalType": "uint256",
                            "name": "sellOrderEnd",
                            "type": "uint256"
                        },
                        {
                            "internalType": "bytes4",
                            "name": "sellOrderDataType",
                            "type": "bytes4"
                        },
                        {
                            "internalType": "bytes",
                            "name": "sellOrderData",
                            "type": "bytes"
                        },
                        {
                            "internalType": "bytes",
                            "name": "sellOrderSignature",
                            "type": "bytes"
                        },
                        {
                            "internalType": "uint256",
                            "name": "buyOrderPaymentAmount",
                            "type": "uint256"
                        },
                        {
                            "internalType": "uint256",
                            "name": "buyOrderNftAmount",
                            "type": "uint256"
                        },
                        {
                            "internalType": "bytes",
                            "name": "buyOrderData",
                            "type": "bytes"
                        }
                    ],
                    "internalType": "struct LibDirectTransfer.Purchase",
                    "name": "direct",
                    "type": "tuple"
                }
            ],
            "name": "directPurchase",
            "outputs": [],
            "stateMutability": "payable",
            "type": "function"
        },
        {
            "inputs": [
                {
                    "internalType": "bytes32",
                    "name": "",
                    "type": "bytes32"
                }
            ],
            "name": "fills",
            "outputs": [
                {
                    "internalType": "uint256",
                    "name": "",
                    "type": "uint256"
                }
            ],
            "stateMutability": "view",
            "type": "function"
        },
        {
            "inputs": [
                {
                    "components": [
                        {
                            "internalType": "address",
                            "name": "maker",
                            "type": "address"
                        },
                        {
                            "components": [
                                {
                                    "components": [
                                        {
                                            "internalType": "bytes4",
                                            "name": "assetClass",
                                            "type": "bytes4"
                                        },
                                        {
                                            "internalType": "bytes",
                                            "name": "data",
                                            "type": "bytes"
                                        }
                                    ],
                                    "internalType": "struct LibAsset.AssetType",
                                    "name": "assetType",
                                    "type": "tuple"
                                },
                                {
                                    "internalType": "uint256",
                                    "name": "value",
                                    "type": "uint256"
                                }
                            ],
                            "internalType": "struct LibAsset.Asset",
                            "name": "makeAsset",
                            "type": "tuple"
                        },
                        {
                            "internalType": "address",
                            "name": "taker",
                            "type": "address"
                        },
                        {
                            "components": [
                                {
                                    "components": [
                                        {
                                            "internalType": "bytes4",
                                            "name": "assetClass",
                                            "type": "bytes4"
                                        },
                                        {
                                            "internalType": "bytes",
                                            "name": "data",
                                            "type": "bytes"
                                        }
                                    ],
                                    "internalType": "struct LibAsset.AssetType",
                                    "name": "assetType",
                                    "type": "tuple"
                                },
                                {
                                    "internalType": "uint256",
                                    "name": "value",
                                    "type": "uint256"
                                }
                            ],
                            "internalType": "struct LibAsset.Asset",
                            "name": "takeAsset",
                            "type": "tuple"
                        },
                        {
                            "internalType": "uint256",
                            "name": "salt",
                            "type": "uint256"
                        },
                        {
                            "internalType": "uint256",
                            "name": "start",
                            "type": "uint256"
                        },
                        {
                            "internalType": "uint256",
                            "name": "end",
                            "type": "uint256"
                        },
                        {
                            "internalType": "bytes4",
                            "name": "dataType",
                            "type": "bytes4"
                        },
                        {
                            "internalType": "bytes",
                            "name": "data",
                            "type": "bytes"
                        }
                    ],
                    "internalType": "struct LibOrder.Order",
                    "name": "orderLeft",
                    "type": "tuple"
                },
                {
                    "internalType": "bytes",
                    "name": "signatureLeft",
                    "type": "bytes"
                },
                {
                    "components": [
                        {
                            "internalType": "address",
                            "name": "maker",
                            "type": "address"
                        },
                        {
                            "components": [
                                {
                                    "components": [
                                        {
                                            "internalType": "bytes4",
                                            "name": "assetClass",
                                            "type": "bytes4"
                                        },
                                        {
                                            "internalType": "bytes",
                                            "name": "data",
                                            "type": "bytes"
                                        }
                                    ],
                                    "internalType": "struct LibAsset.AssetType",
                                    "name": "assetType",
                                    "type": "tuple"
                                },
                                {
                                    "internalType": "uint256",
                                    "name": "value",
                                    "type": "uint256"
                                }
                            ],
                            "internalType": "struct LibAsset.Asset",
                            "name": "makeAsset",
                            "type": "tuple"
                        },
                        {
                            "internalType": "address",
                            "name": "taker",
                            "type": "address"
                        },
                        {
                            "components": [
                                {
                                    "components": [
                                        {
                                            "internalType": "bytes4",
                                            "name": "assetClass",
                                            "type": "bytes4"
                                        },
                                        {
                                            "internalType": "bytes",
                                            "name": "data",
                                            "type": "bytes"
                                        }
                                    ],
                                    "internalType": "struct LibAsset.AssetType",
                                    "name": "assetType",
                                    "type": "tuple"
                                },
                                {
                                    "internalType": "uint256",
                                    "name": "value",
                                    "type": "uint256"
                                }
                            ],
                            "internalType": "struct LibAsset.Asset",
                            "name": "takeAsset",
                            "type": "tuple"
                        },
                        {
                            "internalType": "uint256",
                            "name": "salt",
                            "type": "uint256"
                        },
                        {
                            "internalType": "uint256",
                            "name": "start",
                            "type": "uint256"
                        },
                        {
                            "internalType": "uint256",
                            "name": "end",
                            "type": "uint256"
                        },
                        {
                            "internalType": "bytes4",
                            "name": "dataType",
                            "type": "bytes4"
                        },
                        {
                            "internalType": "bytes",
                            "name": "data",
                            "type": "bytes"
                        }
                    ],
                    "internalType": "struct LibOrder.Order",
                    "name": "orderRight",
                    "type": "tuple"
                },
                {
                    "internalType": "bytes",
                    "name": "signatureRight",
                    "type": "bytes"
                }
            ],
            "name": "matchOrders",
            "outputs": [],
            "stateMutability": "payable",
            "type": "function"
        },
        {
            "inputs": [],
            "name": "owner",
            "outputs": [
                {
                    "internalType": "address",
                    "name": "",
                    "type": "address"
                }
            ],
            "stateMutability": "view",
            "type": "function"
        },
        {
            "inputs": [],
            "name": "renounceOwnership",
            "outputs": [],
            "stateMutability": "nonpayable",
            "type": "function"
        },
        {
            "inputs": [
                {
                    "internalType": "bytes4",
                    "name": "assetType",
                    "type": "bytes4"
                },
                {
                    "internalType": "address",
                    "name": "matcher",
                    "type": "address"
                }
            ],
            "name": "setAssetMatcher",
            "outputs": [],
            "stateMutability": "nonpayable",
            "type": "function"
        },
        {
            "inputs": [
                {
                    "internalType": "bytes4",
                    "name": "assetType",
                    "type": "bytes4"
                },
                {
                    "internalType": "address",
                    "name": "proxy",
                    "type": "address"
                }
            ],
            "name": "setTransferProxy",
            "outputs": [],
            "stateMutability": "nonpayable",
            "type": "function"
        },
        {
            "inputs": [
                {
                    "internalType": "address",
                    "name": "newOwner",
                    "type": "address"
                }
            ],
            "name": "transferOwnership",
            "outputs": [],
            "stateMutability": "nonpayable",
            "type": "function"
        }
    ],
    "bytecode": "608060405234801561001057600080fd5b506145ae806100206000396000f3fe60806040526004361061009c5760003560e01c80638da5cb5b116100645780638da5cb5b1461013457806398f1b95214610156578063b39deb4614610176578063e2864fe314610196578063e99a3f80146101b6578063f2fde38b146101c95761009c565b80630d5f7d35146100a157806320158c44146100b657806330c642f1146100ec57806367d49a3b1461010c578063715018a61461011f575b600080fd5b6100b46100af366004613b30565b6101e9565b005b3480156100c257600080fd5b506100d66100d1366004613adf565b61050e565b6040516100e39190613fe1565b60405180910390f35b3480156100f857600080fd5b506100b4610107366004613b13565b610521565b6100b461011a366004613b30565b6105f1565b34801561012b57600080fd5b506100b46108d4565b34801561014057600080fd5b50610149610980565b6040516100e39190613f58565b34801561016257600080fd5b506100b4610171366004613a8d565b61098f565b34801561018257600080fd5b506100b4610191366004613b13565b610a55565b3480156101a257600080fd5b506100b46101b1366004613e36565b610b19565b6100b46101c4366004613e68565b610bda565b3480156101d557600080fd5b506100b46101e4366004613a28565b610bf0565b60006102036101fe60c0840160a08501613a28565b610cf3565b604080516101208101909152909150600090806102236020860186613a28565b6001600160a01b031681526020016040518060400160405280604051806040016040528088604001602081019061025a9190613af7565b6001600160e01b031916815260200161027660608a018a614373565b8080601f0160208091040260200160405190810160405280939291908181526020018383808284376000920182905250939094525050918352506020888101359281019290925291835282810191909152604080518082018252868152608080890135938201939093529083015260c080870135606084015260e08701359183019190915261010086013560a08301520161031961014086016101208701613af7565b6001600160e01b0319168152602001610336610140860186614373565b8080601f0160208091040260200160405190810160405280939291908181526020018383808284376000920182905250939094525050604080516101208101825282815281518083018352878152610180890135602082810191909152820152808201839052815160808101835294955091939192506060808401929182918282019182916103ca91908c01908c01613af7565b6001600160e01b03191681526020016103e660608b018b614373565b8080601f0160208091040260200160405190810160405280939291908181526020018383808284376000920182905250939094525050918352506101a0890135602092830152918352820181905260408201819052606082015260800161045d61045861014088016101208901613af7565b610d59565b6001600160e01b031916815260200161047a6101c0870187614373565b8080601f016020809104026020016040519081016040528093929190818152602001838380828437600092019190915250505091525090506104fe826104c4610160870187614373565b8080601f016020809104026020016040519081016040528093929190818152602001838380828437600092019190915250610ddf92505050565b6105088282610df6565b50505050565b61012f6020526000908152604090205481565b610529611054565b6001600160a01b031661053a610980565b6001600160a01b031614610583576040805162461bcd60e51b81526020600482018190526024820152600080516020614559833981519152604482015290519081900360640190fd5b6001600160e01b031982166000818152609760205260409081902080546001600160a01b0319166001600160a01b038516179055517f4b5aced933c0c9a88aeac3f0b3b72c5aaf75df8ebaf53225773248c4c3153593906105e5908490613f58565b60405180910390a25050565b60006106066101fe60c0840160a08501613a28565b604080516101208101909152909150600090806106266020860186613a28565b6001600160a01b0316815260200160405180604001604052808581526020018660800135815250815260200160006001600160a01b031681526020016040518060400160405280604051806040016040528088604001602081019061068b9190613af7565b6001600160e01b03191681526020016106a760608a018a614373565b8080601f016020809104026020016040519081016040528093929190818152602001838380828437600092019190915250505091525081526020878101359181019190915290825260c08601359082015260e08501356040820152610100850135606082015260800161072261014086016101208701613af7565b6001600160e01b031916815260200161073f610140860186614373565b8080601f016020809104026020016040519081016040528093929190818152602001838380828437600092018290525093909452505060408051610120810182528281528151608081018352949550919391925060208301919081908181019081906107b19060608c01908c01613af7565b6001600160e01b03191681526020016107cd60608b018b614373565b8080601f0160208091040260200160405190810160405280939291908181526020018383808284376000920182905250939094525050918352506101a08901356020928301529183528281018290526040805180820182528881526101808a013592810192909252830152606082018190526080820181905260a082015260c00161086361045861014088016101208901613af7565b6001600160e01b03191681526020016108806101c0870187614373565b8080601f016020809104026020016040519081016040528093929190818152602001838380828437600092019190915250505091525090506108ca826104c4610160870187614373565b6105088183610df6565b6108dc611054565b6001600160a01b03166108ed610980565b6001600160a01b031614610936576040805162461bcd60e51b81526020600482018190526024820152600080516020614559833981519152604482015290519081900360640190fd5b6033546040516000916001600160a01b0316907f8be0079c531659141344cd1fd0a4f28419497f9722a3daafe3b4186f6b6457e0908390a3603380546001600160a01b0319169055565b6033546001600160a01b031690565b600054610100900460ff16806109a857506109a8611058565b806109b6575060005460ff16155b6109f15760405162461bcd60e51b815260040180806020018281038252602e8152602001806144e8602e913960400191505060405180910390fd5b600054610100900460ff16158015610a1c576000805460ff1961ff0019909116610100171660011790555b610a24611069565b610a2c61110b565b610a34611204565b610a3e83836112d4565b8015610a50576000805461ff00191690555b505050565b610a5d611054565b6001600160a01b0316610a6e610980565b6001600160a01b031614610ab7576040805162461bcd60e51b81526020600482018190526024820152600080516020614559833981519152604482015290519081900360640190fd5b6001600160e01b031982166000818152606560205260409081902080546001600160a01b0319166001600160a01b038516179055517fd2bf91075f105d0fd80328da28e20ebdad1c1261839711183bc29a44cbe6c72f906105e5908490613f58565b80516001600160a01b0316610b2c611054565b6001600160a01b031614610b5b5760405162461bcd60e51b8152600401610b52906142e3565b60405180910390fd5b6080810151610b7c5760405162461bcd60e51b8152600401610b52906140a9565b6000610b878261137e565b600081815261012f6020526040908190206000199055519091507fe8d9861dbc9c663ed3accd261bbe2fe01e0d3d9e5f51fa38523b265c7757a93a90610bce908390613fe1565b60405180910390a15050565b610be684848484611506565b6105088483610df6565b610bf8611054565b6001600160a01b0316610c09610980565b6001600160a01b031614610c52576040805162461bcd60e51b81526020600482018190526024820152600080516020614559833981519152604482015290519081900360640190fd5b6001600160a01b038116610c975760405162461bcd60e51b81526004018080602001828103825260268152602001806144536026913960400191505060405180910390fd5b6033546040516001600160a01b038084169216907f8be0079c531659141344cd1fd0a4f28419497f9722a3daafe3b4186f6b6457e090600090a3603380546001600160a01b0319166001600160a01b0392909216919091179055565b610cfb6136c4565b610d036136c4565b6001600160a01b038316610d20576355575f5d60e11b8152610d51565b6322ba176160e21b8152604051610d3b908490602001613f58565b60408051601f1981840301815291905260208201525b90505b919050565b60006001600160e01b03198216632fa3cfd360e01b1415610d9b57507f1b18cdf6be079a715471a3705c2d89e1d730066ce14915cb307cc3e4a90c92d4610d54565b6001600160e01b03198216630d8c66fb60e11b1415610ddb57507f2fa3cfd36fc2a11048e46a7dac1916c392731880ba073f2b7f10566b2fd6133e610d54565b5090565b610de8826115d2565b610df2828261169c565b5050565b600080610e03848461194b565b915091506000806000610e1687876119e4565b925092509250600080610f7b6040518060a0016040528060405180604001604052808b8152602001876000015181525081526020018760000151815260200187602001518152602001609760008b600001516001600160e01b0319166001600160e01b031916815260200190815260200160002060009054906101000a90046001600160a01b03166001600160a01b031681526020018b600001516001600160a01b03168152506040518060a0016040528060405180604001604052808b8152602001886020015181525081526020018760000151815260200187602001518152602001609760008b600001516001600160e01b0319166001600160e01b031916815260200190815260200160002060009054906101000a90046001600160a01b03166001600160a01b031681526020018b600001516001600160a01b0316815250610f768a600001518a600001518e60e001518e60e001518c8c611a93565b611ae3565b885191935091506001600160e01b0319166355575f5d60e11b1415610ffa5785516001600160e01b0319166355575f5d60e11b1415610fb957600080fd5b81341015610fd95760405162461bcd60e51b8152600401610b52906142bb565b81341115610ff557610ff5610fee3484611b33565b3390611b95565b611049565b85516001600160e01b0319166355575f5d60e11b141561104957803410156110345760405162461bcd60e51b8152600401610b52906142bb565b8034111561104957611049610fee3483611b33565b505050505050505050565b3390565b600061106330611c2d565b15905090565b600054610100900460ff16806110825750611082611058565b80611090575060005460ff16155b6110cb5760405162461bcd60e51b815260040180806020018281038252602e8152602001806144e8602e913960400191505060405180910390fd5b600054610100900460ff161580156110f6576000805460ff1961ff0019909116610100171660011790555b8015611108576000805461ff00191690555b50565b600054610100900460ff16806111245750611124611058565b80611132575060005460ff16155b61116d5760405162461bcd60e51b815260040180806020018281038252602e8152602001806144e8602e913960400191505060405180910390fd5b600054610100900460ff16158015611198576000805460ff1961ff0019909116610100171660011790555b60006111a2611054565b603380546001600160a01b0319166001600160a01b038316908117909155604051919250906000907f8be0079c531659141344cd1fd0a4f28419497f9722a3daafe3b4186f6b6457e0908290a3508015611108576000805461ff001916905550565b600054610100900460ff168061121d575061121d611058565b8061122b575060005460ff16155b6112665760405162461bcd60e51b815260040180806020018281038252602e8152602001806144e8602e913960400191505060405180910390fd5b600054610100900460ff16158015611291576000805460ff1961ff0019909116610100171660011790555b6110f66040518060400160405280600881526020016745786368616e676560c01b815250604051806040016040528060018152602001601960f91b815250611c33565b60976020527f4532fa16f071d6234e30e1a1e69b9806f04095edf37a1ca7a25c8d6af7861cc080546001600160a01b039283166001600160a01b0319918216179091557f30a684095c937b5aa064dcf94f9903a7d808e3efb22d8389dbd43080ad4ed3d5805493909216928116831790915563025ceed960e61b6000527f4b5822151ea34b7c8d9e37c3e466bcecb631efe6a9f26a4a4054110a93dd316f80549091169091179055565b60e08101516000906001600160e01b031916632611a13360e11b14806113b2575060e08201516001600160e01b0319908116145b156114275781516020830151516113c890611cf3565b6060840151516113d790611cf3565b846080015160405160200180856001600160a01b03168152602001848152602001838152602001828152602001945050505050604051602081830303815290604052805190602001209050610d54565b815160208301515161143890611cf3565b60608401515161144790611cf3565b846080015185610100015160405160200180866001600160a01b0316815260200185815260200184815260200183815260200180602001828103825283818151815260200191508051906020019080838360005b838110156114b357818101518382015260200161149b565b50505050905090810190601f1680156114e05780820380516001836020036101000a031916815260200191505b509650505050505050604051602081830303815290604052805190602001209050610d54565b6115108484610ddf565b61151a8282610ddf565b60408401516001600160a01b0316156115765781516001600160a01b0316156115765783604001516001600160a01b031682600001516001600160a01b0316146115765760405162461bcd60e51b8152600401610b5290614278565b60408201516001600160a01b0316156105085783516001600160a01b0316156105085783600001516001600160a01b031682604001516001600160a01b0316146105085760405162461bcd60e51b8152600401610b529061414d565b60a081015115806115e65750428160a00151105b611637576040805162461bcd60e51b815260206004820152601d60248201527f4f726465722073746172742076616c69646174696f6e206661696c6564000000604482015290519081900360640190fd5b60c0810151158061164b5750428160c00151115b611108576040805162461bcd60e51b815260206004820152601b60248201527f4f7264657220656e642076616c69646174696f6e206661696c65640000000000604482015290519081900360640190fd5b60808201516117215781516001600160a01b03161561171c5781516001600160a01b03166116c8611054565b6001600160a01b03161461171c576040805162461bcd60e51b815260206004820152601660248201527536b0b5b2b91034b9903737ba103a3c1039b2b73232b960511b604482015290519081900360640190fd5b610df2565b81516001600160a01b0316611734611054565b6001600160a01b031614610df257600061174d83611d5d565b905061176583600001516001600160a01b0316611c2d565b156118a1578251630b135d3f60e11b906001600160a01b0316631626ba7e61178c84611e4d565b856040518363ffffffff1660e01b81526004018083815260200180602001828103825283818151815260200191508051906020019080838360005b838110156117df5781810151838201526020016117c7565b50505050905090810190601f16801561180c5780820380516001836020036101000a031916815260200191505b50935050505060206040518083038186803b15801561182a57600080fd5b505afa15801561183e573d6000803e3d6000fd5b505050506040513d602081101561185457600080fd5b50516001600160e01b0319161461189c5760405162461bcd60e51b815260040180806020018281038252602b8152602001806144bd602b913960400191505060405180910390fd5b610a50565b82516001600160a01b03166118bf836118b984611e4d565b90611e99565b6001600160a01b0316146119045760405162461bcd60e51b815260040180806020018281038252602281526020018061449b6022913960400191505060405180910390fd5b82516001600160a01b0316610a50576040805162461bcd60e51b815260206004820152600860248201526737379036b0b5b2b960c11b604482015290519081900360640190fd5b6119536136c4565b61195b6136c4565b6020840151516060840151516119719190611f19565b80519092506001600160e01b03191661199c5760405162461bcd60e51b8152600401610b529061424c565b6060840151516020840151516119b29190611f19565b80519091506001600160e01b0319166119dd5760405162461bcd60e51b8152600401610b529061424c565b9250929050565b6119ec6136dc565b6119f46136dc565b6119fc613706565b6000611a078661137e565b90506000611a148661137e565b90506000611a20611054565b88519091506001600160a01b0316611a3f576001600160a01b03811688525b86516001600160a01b0316611a5b576001600160a01b03811687525b611a6488611f59565b9550611a6f87611f59565b9450611a87888885858a604001518a60400151612139565b93505050509250925092565b611a9b613720565b611aa5878761229d565b81602001906002811115611ab557fe5b90816002811115611ac257fe5b81525050611ad785858585856020015161236e565b81529695505050505050565b600080611b028560000151866080015186608001518860600151612524565b611b1e8460000151856080015187608001518760600151612524565b50509151602090810151915101519092909150565b600082821115611b8a576040805162461bcd60e51b815260206004820152601e60248201527f536166654d6174683a207375627472616374696f6e206f766572666c6f770000604482015290519081900360640190fd5b508082035b92915050565b6040516000906001600160a01b0384169083908381818185875af1925050503d8060008114611be0576040519150601f19603f3d011682016040523d82523d6000602084013e611be5565b606091505b5050905080610a50576040805162461bcd60e51b815260206004820152600f60248201526e1d1c985b9cd9995c8819985a5b1959608a1b604482015290519081900360640190fd5b3b151590565b600054610100900460ff1680611c4c5750611c4c611058565b80611c5a575060005460ff16155b611c955760405162461bcd60e51b815260040180806020018281038252602e8152602001806144e8602e913960400191505060405180910390fd5b600054610100900460ff16158015611cc0576000805460ff1961ff0019909116610100171660011790555b825160208085019190912083519184019190912060c99190915560ca558015610a50576000805461ff0019169055505050565b8051602091820151805190830120604080517f452a0dc408cb0d27ffc3b3caff933a5208040a53a9dbecd8d89cad2c0d40e00c818601526001600160e01b031990931683820152606080840192909252805180840390920182526080909201909152805191012090565b60007f477ed43b8020849b755512278536c3766a3b4ab547519949a75f483372493f8d8260000151611d928460200151612936565b8460400151611da48660600151612936565b86608001518760a001518860c001518960e001518a610100015180519060200120604051602001808b81526020018a6001600160a01b03168152602001898152602001886001600160a01b03168152602001878152602001868152602001858152602001848152602001836001600160e01b03191681526020018281526020019a5050505050505050505050604051602081830303815290604052805190602001209050919050565b6000611e576129a6565b82604051602001808061190160f01b81525060020183815260200182815260200192505050604051602081830303815290604052805190602001209050919050565b60008151604114611ef1576040805162461bcd60e51b815260206004820152601f60248201527f45434453413a20696e76616c6964207369676e6174757265206c656e67746800604482015290519081900360640190fd5b60208201516040830151606084015160001a611f0f868285856129e6565b9695505050505050565b611f216136c4565b6000611f2d8484612c33565b80519091506001600160e01b031916611f5257611f4a8385612c33565b915050611b8f565b9050611b8f565b611f616136dc565b60e08201516001600160e01b031916632611a13360e11b1415611fad576000826101000151806020019051810190611f999190613c29565b805183526020908101519083015250612120565b60e08201516001600160e01b0319166323d235ef60e01b1415612005576000826101000151806020019051810190611fe59190613cc4565b805183526020808201519084015260409081015115159083015250612120565b60e08201516001600160e01b031916632fa3cfd360e01b141561207d57600082610100015180602001905181019061203d9190613dce565b905061204c8160000151612e4f565b8252602081015160408201516120629190612eb2565b60208301526001604083015260609081015190820152612120565b60e08201516001600160e01b031916630d8c66fb60e11b14156120ec5760008261010001518060200190518101906120b59190613d70565b90506120c48160000151612e4f565b8252602081015160408201516120da9190612eb2565b60208301525060006040820152612120565b60e08201516001600160e01b0319908116141561210857612120565b60405162461bcd60e51b8152600401610b5290614215565b805151610d5457815161213290613015565b8152919050565b612141613706565b60006121518860800151876130b0565b905060006121638860800151876130b0565b905060006121758a8a85858a8a6130d5565b90506000816020015111801561218b5750805115155b6121a75760405162461bcd60e51b8152600401610b52906141bd565b60808a0151156121fa5785156121d95780516121c490849061315b565b600089815261012f60205260409020556121fa565b60208101516121e990849061315b565b600089815261012f60205260409020555b60808901511561224d57841561222f57602081015161221a90839061315b565b600088815261012f602052604090205561224d565b805161223c90839061315b565b600088815261012f60205260409020555b602081015181516040517f956cd63ee4cdcd81fda5f0ec7c6c36dceda99e1b412f4a650a5d26055dc3c45092612288928c928c929190613fea565b60405180910390a19998505050505050505050565b60006001600160e01b031983166355575f5d60e11b14156122c057506001611b8f565b6001600160e01b031982166355575f5d60e11b14156122e157506002611b8f565b6001600160e01b031983166322ba176160e21b141561230257506001611b8f565b6001600160e01b031982166322ba176160e21b141561232357506002611b8f565b6001600160e01b0319831663025ceed960e61b141561234457506001611b8f565b6001600160e01b0319821663025ceed960e61b141561236557506002611b8f565b50600092915050565b60006001600160e01b03198616632fa3cfd360e01b148015906123a257506001600160e01b03198516632fa3cfd360e01b14155b80156123bf57506001600160e01b03198616630d8c66fb60e11b14155b80156123dc57506001600160e01b03198516630d8c66fb60e11b14155b156123e95750600061251b565b60006123fd856020015185602001516131b5565b90506000600184600281111561240f57fe5b141561246c575060608401516001600160e01b03198816630d8c66fb60e11b14801561244b57506001600160e01b03198716632fa3cfd360e01b145b6124675760405162461bcd60e51b8152600401610b52906140d7565b6124dd565b600284600281111561247a57fe5b14156124d2575060608501516001600160e01b03198716630d8c66fb60e11b1480156124b657506001600160e01b03198816632fa3cfd360e01b145b6124675760405162461bcd60e51b8152600401610b5290614125565b60009250505061251b565b6000811180156124ed5750818110155b80156124fb57506103e88111155b6125175760405162461bcd60e51b8152600401610b52906140ff565b9150505b95945050505050565b8351516001600160e01b0319166339d690a360e11b141561266a5760008085600001516020015180602001905181019061255e9190613a60565b9150915085602001516001146125865760405162461bcd60e51b8152600401610b5290614191565b6001600160a01b0385163014156125fe57604051632142170760e11b81526001600160a01b038316906342842e0e906125c790309088908690600401613f6c565b600060405180830381600087803b1580156125e157600080fd5b505af11580156125f5573d6000803e3d6000fd5b50505050612663565b604051637b84dc8360e11b81526001600160a01b0384169063f709b90690612630908590899089908790600401614048565b600060405180830381600087803b15801561264a57600080fd5b505af115801561265e573d6000803e3d6000fd5b505050505b5050610508565b8351516001600160e01b0319166322ba176160e21b14156127c85760008460000151602001518060200190518101906126a39190613a44565b90506001600160a01b03841630141561275a57602085015160405163a9059cbb60e01b81526001600160a01b0383169163a9059cbb916126e7918791600401613fc8565b602060405180830381600087803b15801561270157600080fd5b505af1158015612715573d6000803e3d6000fd5b505050506040513d601f19601f820116820180604052508101906127399190613ac5565b6127555760405162461bcd60e51b8152600401610b52906141e6565b6127c2565b602085015160405163776062c360e01b81526001600160a01b0384169163776062c39161278f91859189918991600401614048565b600060405180830381600087803b1580156127a957600080fd5b505af11580156127bd573d6000803e3d6000fd5b505050505b50610508565b8351516001600160e01b03191663025ceed960e61b1415612885576000808560000151602001518060200190518101906128029190613a60565b90925090506001600160a01b03851630141561284d576020860151604051637921219560e11b81526001600160a01b0384169163f242432a916125c791309189918791600401613f90565b6020860151604051639c1c2ee960e01b81526001600160a01b03851691639c1c2ee9916126309186918a918a91889190600401614005565b8351516001600160e01b0319166355575f5d60e11b14156128ce576001600160a01b03821630146128c95760208401516128c9906001600160a01b03841690611b95565b610508565b6040516354bc0cf160e01b81526001600160a01b038216906354bc0cf1906128fe9087908790879060040161432d565b600060405180830381600087803b15801561291857600080fd5b505af115801561292c573d6000803e3d6000fd5b5050505050505050565b60007fdb6f72e915676cfc289da13bc4ece054fd17b1df6d77ffc4a60510718c236b086129668360000151611cf3565b8360200151604051602001808481526020018381526020018281526020019350505050604051602081830303815290604052805190602001209050919050565b60006129e17f8b73c3c69bb8fe3d512ecc4cf759cc79239f7b179b0ffacaa9a75d522b39400f6129d461323c565b6129dc613242565b613248565b905090565b60007f7fffffffffffffffffffffffffffffff5d576e7357a4501ddfe92f46681b20a0821115612a475760405162461bcd60e51b81526004018080602001828103825260228152602001806144796022913960400191505060405180910390fd5b6000601e8560ff161115612b21576004850360ff16601b1480612a7057506004850360ff16601c145b612aab5760405162461bcd60e51b81526004018080602001828103825260228152602001806145166022913960400191505060405180910390fd5b6001612ab6876132aa565b60048703868660405160008152602001604052604051808581526020018460ff1681526020018381526020018281526020019450505050506020604051602081039080840390855afa158015612b10573d6000803e3d6000fd5b505050602060405103519050612bd8565b8460ff16601b1480612b3657508460ff16601c145b612b715760405162461bcd60e51b81526004018080602001828103825260228152602001806145166022913960400191505060405180910390fd5b60018686868660405160008152602001604052604051808581526020018460ff1681526020018381526020018281526020019450505050506020604051602081039080840390855afa158015612bcb573d6000803e3d6000fd5b5050506020604051035190505b6001600160a01b03811661251b576040805162461bcd60e51b815260206004820152601860248201527f45434453413a20696e76616c6964207369676e61747572650000000000000000604482015290519081900360640190fd5b612c3b6136c4565b825182516001600160e01b031982166355575f5d60e11b1415612ca6576001600160e01b031981166355575f5d60e11b1415612c7b578492505050611b8f565b5050604080518082018252600080825282516020818101909452908152918101919091529050611b8f565b6001600160e01b031982166322ba176160e21b1415612ceb576001600160e01b031981166322ba176160e21b1415612c7b57612ce285856132fb565b92505050611b8f565b6001600160e01b031982166339d690a360e11b1415612d27576001600160e01b031981166339d690a360e11b1415612c7b57612ce285856132fb565b6001600160e01b0319821663025ceed960e61b1415612d63576001600160e01b0319811663025ceed960e61b1415612c7b57612ce285856132fb565b6001600160e01b031982166000908152606560205260409020546001600160a01b03168015612e18576040516306d3f7cb60e41b81526001600160a01b03821690636d3f7cb090612dba9089908990600401614308565b60006040518083038186803b158015612dd257600080fd5b505afa158015612de6573d6000803e3d6000fd5b505050506040513d6000823e601f3d908101601f19168201604052612e0e9190810190613b62565b9350505050611b8f565b6001600160e01b03198381169083161415612e3757612e0e86866132fb565b60405162461bcd60e51b8152600401610b5290614072565b6060808215610d515760408051600180825281830190925290816020015b612e75613720565b815260200190600190039081612e6d579050509050612e9383613358565b81600081518110612ea057fe5b60200260200101819052509050919050565b606080600084118015612ec55750600083115b15612f40576040805160028082526060820190925290816020015b612ee8613720565b815260200190600190039081612ee0579050509050612f0684613358565b81600081518110612f1357fe5b6020026020010181905250612f2783613358565b81600181518110612f3457fe5b60200260200101819052505b600084118015612f4e575082155b15612fa75760408051600180825281830190925290816020015b612f70613720565b815260200190600190039081612f68579050509050612f8e84613358565b81600081518110612f9b57fe5b60200260200101819052505b83158015612fb55750600083115b1561300e5760408051600180825281830190925290816020015b612fd7613720565b815260200190600190039081612fcf579050509050612ff583613358565b8160008151811061300257fe5b60200260200101819052505b9392505050565b60408051600180825281830190925260609160009190816020015b613038613720565b815260200190600190039081613030579050509050828160008151811061305b57fe5b6020026020010151600001906001600160a01b031690816001600160a01b0316815250506127108160008151811061308f57fe5b6020908102919091018101516001600160601b039092169101529050919050565b6000826130bf57506000611b8f565b50600090815261012f6020526040902054919050565b6130dd613706565b6000806130eb898887613380565b915091506000806130fd8a8988613380565b91509150838111156131305761312584848c60200151602001518d60600151602001516133fa565b945050505050611f0f565b61314c8b60200151602001518c6060015160200151848461347f565b9b9a5050505050505050505050565b60008282018381101561300e576040805162461bcd60e51b815260206004820152601b60248201527f536166654d6174683a206164646974696f6e206f766572666c6f770000000000604482015290519081900360640190fd5b600080805b84518110156131f5578481815181106131cf57fe5b6020026020010151602001516001600160601b03168201915080806001019150506131ba565b5060005b83518110156132345783818151811061320e57fe5b6020026020010151602001516001600160601b03168201915080806001019150506131f9565b509392505050565b60c95490565b60ca5490565b6000838383613255613505565b3060405160200180868152602001858152602001848152602001838152602001826001600160a01b03168152602001955050505050506040516020818303038152906040528051906020012090509392505050565b604080517f19457468657265756d205369676e6564204d6573736167653a0a333200000000602080830191909152603c8083019490945282518083039094018452605c909101909152815191012090565b6133036136c4565b6020808401518051908201208382015180519201919091208082141561332d578492505050611b8f565b5050604080518082018252600080825282516020808201909452908152918101919091529392505050565b613360613720565b8115610d54576001600160a01b038216815260a09190911c602082015290565b60008082156133bf57602080860151015161339b9085611b33565b91506133b885606001516020015186602001516020015184613509565b90506133f2565b6060850151602001516133d29085611b33565b90506133ef85602001516020015186606001516020015183613509565b91505b935093915050565b613402613706565b600061340f858585613509565b905085811115613466576040805162461bcd60e51b815260206004820152601860248201527f66696c6c4c6566743a20756e61626c6520746f2066696c6c0000000000000000604482015290519081900360640190fd5b5050604080518082019091529384525050602082015290565b613487613706565b6000613494838787613509565b9050838111156134eb576040805162461bcd60e51b815260206004820152601960248201527f66696c6c52696768743a20756e61626c6520746f2066696c6c00000000000000604482015290519081900360640190fd5b604080518082019091529283526020830152509392505050565b4690565b6000613516848484613575565b15613559576040805162461bcd60e51b815260206004820152600e60248201526d3937bab73234b7339032b93937b960911b604482015290519081900360640190fd5b61356d836135678685613604565b9061365d565b949350505050565b6000826135bc576040805162461bcd60e51b815260206004820152601060248201526f6469766973696f6e206279207a65726f60801b604482015290519081900360640190fd5b8115806135c7575083155b156135d45750600061300e565b600083806135de57fe5b85840990506135ed8584613604565b6135f9826103e8613604565b101595945050505050565b60008261361357506000611b8f565b8282028284828161362057fe5b041461300e5760405162461bcd60e51b81526004018080602001828103825260218152602001806145386021913960400191505060405180910390fd5b60008082116136b3576040805162461bcd60e51b815260206004820152601a60248201527f536166654d6174683a206469766973696f6e206279207a65726f000000000000604482015290519081900360640190fd5b8183816136bc57fe5b049392505050565b60408051808201909152600081526060602082015290565b60405180608001604052806060815260200160608152602001600015158152602001600081525090565b604051806040016040528060008152602001600081525090565b604080518082019091526000808252602082015290565b8035610d5481614427565b600082601f830112613752578081fd5b815160206001600160401b038083111561376857fe5b61377582838502016143b7565b838152828101908684016040808702890186018a1015613793578788fd5b875b878110156137fb5781838c0312156137ab578889fd5b815182810181811088821117156137be57fe5b835283516137cb81614427565b8152838801516001600160601b03811681146137e5578a8bfd5b8189015285529386019391810191600101613795565b50919998505050505050505050565b80518015158114610d5457600080fd5b8035610d548161443c565b600082601f830112613835578081fd5b8135613848613843826143da565b6143b7565b81815284602083860101111561385c578283fd5b816020850160208301379081016020019190915292915050565b60006101e08284031215613888578081fd5b50919050565b600060408083850312156138a0578182fd5b80518181016001600160401b0382821081831117156138bb57fe5b8184528294508535818111156138d057600080fd5b86018088038513156138e157600080fd5b6080840183811083821117156138f357fe5b9094528335936139028561443c565b9382526020840135938185111561391857600080fd5b61392488868301613825565b60608501525050815260209384013593019290925292915050565b6000610120808385031215613952578182fd5b61395b816143b7565b91505061396782613737565b815260208201356001600160401b038082111561398357600080fd5b61398f8583860161388e565b60208401526139a060408501613737565b604084015260608401359150808211156139b957600080fd5b6139c58583860161388e565b60608401526080840135608084015260a084013560a084015260c084013560c08401526139f460e0850161381a565b60e084015261010091508184013581811115613a0f57600080fd5b613a1b86828701613825565b8385015250505092915050565b600060208284031215613a39578081fd5b813561300e81614427565b600060208284031215613a55578081fd5b815161300e81614427565b60008060408385031215613a72578081fd5b8251613a7d81614427565b6020939093015192949293505050565b60008060408385031215613a9f578182fd5b8235613aaa81614427565b91506020830135613aba81614427565b809150509250929050565b600060208284031215613ad6578081fd5b61300e8261380a565b600060208284031215613af0578081fd5b5035919050565b600060208284031215613b08578081fd5b813561300e8161443c565b60008060408385031215613b25578182fd5b8235613aaa8161443c565b600060208284031215613b41578081fd5b81356001600160401b03811115613b56578182fd5b61356d84828501613876565b60006020808385031215613b74578182fd5b82516001600160401b0380821115613b8a578384fd5b9084019060408287031215613b9d578384fd5b604051604081018181108382111715613bb257fe5b6040528251613bc08161443c565b81528284015182811115613bd2578586fd5b80840193505086601f840112613be6578485fd5b82519150613bf6613843836143da565b8281528785848601011115613c09578586fd5b613c18838683018787016143fb565b938101939093525090949350505050565b600060208284031215613c3a578081fd5b81516001600160401b0380821115613c50578283fd5b9083019060408286031215613c63578283fd5b604051604081018181108382111715613c7857fe5b604052825182811115613c89578485fd5b613c9587828601613742565b825250602083015182811115613ca9578485fd5b613cb587828601613742565b60208301525095945050505050565b600060208284031215613cd5578081fd5b81516001600160401b0380821115613ceb578283fd5b9083019060608286031215613cfe578283fd5b604051606081018181108382111715613d1357fe5b604052825182811115613d24578485fd5b613d3087828601613742565b825250602083015182811115613d44578485fd5b613d5087828601613742565b602083015250613d626040840161380a565b604082015295945050505050565b600060808284031215613d81578081fd5b604051608081018181106001600160401b0382111715613d9d57fe5b8060405250825181526020830151602082015260408301516040820152606083015160608201528091505092915050565b600060a08284031215613ddf578081fd5b60405160a081018181106001600160401b0382111715613dfb57fe5b806040525082518152602083015160208201526040830151604082015260608301516060820152608083015160808201528091505092915050565b600060208284031215613e47578081fd5b81356001600160401b03811115613e5c578182fd5b61356d8482850161393f565b60008060008060808587031215613e7d578182fd5b84356001600160401b0380821115613e93578384fd5b613e9f8883890161393f565b95506020870135915080821115613eb4578384fd5b613ec088838901613825565b94506040870135915080821115613ed5578384fd5b613ee18883890161393f565b93506060870135915080821115613ef6578283fd5b50613f0387828801613825565b91505092959194509250565b600063ffffffff60e01b82511683526020820151604060208501528051806040860152613f438160608701602085016143fb565b601f01601f1916939093016060019392505050565b6001600160a01b0391909116815260200190565b6001600160a01b039384168152919092166020820152604081019190915260600190565b6001600160a01b0394851681529290931660208301526040820152606081019190915260a06080820181905260009082015260c00190565b6001600160a01b03929092168252602082015260400190565b90815260200190565b93845260208401929092526040830152606082015260800190565b6001600160a01b03958616815293851660208501529190931660408301526060820192909252608081019190915260c060a0820181905260009082015260e00190565b6001600160a01b039485168152928416602084015292166040820152606081019190915260800190565b60208082526017908201527f6e6f7420666f756e64204941737365744d617463686572000000000000000000604082015260600190565b6020808252601490820152730c081cd85b1d0818d85b89dd081899481d5cd95960621b604082015260600190565b6020808252600e908201526d77726f6e6720563320747970653160901b604082015260600190565b6020808252600c908201526b77726f6e67206d617846656560a01b604082015260600190565b6020808252600e908201526d3bb937b733902b19903a3cb8329960911b604082015260600190565b60208082526024908201527f72696768744f726465722e74616b657220766572696669636174696f6e2066616040820152631a5b195960e21b606082015260800190565b60208082526012908201527132b9319b9918903b30b63ab29032b93937b960711b604082015260600190565b6020808252600f908201526e1b9bdd1a1a5b99c81d1bc8199a5b1b608a1b604082015260600190565b602080825260159082015274195c98cc8c081d1c985b9cd9995c8819985a5b1959605a1b604082015260600190565b60208082526017908201527f556e6b6e6f776e204f7264657220646174612074797065000000000000000000604082015260600190565b6020808252601290820152710c2e6e6cae8e640c8dedc4ee840dac2e8c6d60731b604082015260600190565b60208082526023908201527f6c6566744f726465722e74616b657220766572696669636174696f6e206661696040820152621b195960ea1b606082015260800190565b6020808252600e908201526d0dcdee840cadcdeeaced040cae8d60931b604082015260600190565b6020808252600b908201526a3737ba10309036b0b5b2b960a91b604082015260600190565b60006040825261431b6040830185613f0f565b828103602084015261251b8185613f0f565b60006060825284516040606084015261434960a0840182613f0f565b60209687015160808501526001600160a01b03958616968401969096525050911660409091015290565b6000808335601e19843603018112614389578283fd5b8301803591506001600160401b038211156143a2578283fd5b6020019150368190038213156119dd57600080fd5b6040518181016001600160401b03811182821017156143d257fe5b604052919050565b60006001600160401b038211156143ed57fe5b50601f01601f191660200190565b60005b838110156144165781810151838201526020016143fe565b838111156105085750506000910152565b6001600160a01b038116811461110857600080fd5b6001600160e01b03198116811461110857600080fdfe4f776e61626c653a206e6577206f776e657220697320746865207a65726f206164647265737345434453413a20696e76616c6964207369676e6174757265202773272076616c75656f72646572207369676e617475726520766572696669636174696f6e206572726f72636f6e7472616374206f72646572207369676e617475726520766572696669636174696f6e206572726f72496e697469616c697a61626c653a20636f6e747261637420697320616c726561647920696e697469616c697a656445434453413a20696e76616c6964207369676e6174757265202776272076616c7565536166654d6174683a206d756c7469706c69636174696f6e206f766572666c6f774f776e61626c653a2063616c6c6572206973206e6f7420746865206f776e6572a264697066735822122035644902ae3905eeef37c648163e47e051831e983af05ecdd506b613686b30b464736f6c63430007060033",
    "sourcePath": "c:/Users/SuperDev/Documents/Repos/protocol-contracts/exchange-v2/test/contracts/ExchangeSimpleV2.sol",
    "compiler": {
        "name": "solc",
        "version": "0.7.6+commit.7338295f"
    },
    "functionHashes": {
        "__ExchangeSimpleV2_init(address,address)": "98f1b952",
        "cancel((address,((bytes4,bytes),uint256),address,((bytes4,bytes),uint256),uint256,uint256,uint256,bytes4,bytes))": "e2864fe3",
        "directAcceptBid((address,uint256,bytes4,bytes,uint256,address,uint256,uint256,uint256,bytes4,bytes,bytes,uint256,uint256,bytes))": "67d49a3b",
        "directPurchase((address,uint256,bytes4,bytes,uint256,address,uint256,uint256,uint256,bytes4,bytes,bytes,uint256,uint256,bytes))": "0d5f7d35",
        "fills(bytes32)": "20158c44",
        "matchOrders((address,((bytes4,bytes),uint256),address,((bytes4,bytes),uint256),uint256,uint256,uint256,bytes4,bytes),bytes,(address,((bytes4,bytes),uint256),address,((bytes4,bytes),uint256),uint256,uint256,uint256,bytes4,bytes),bytes)": "e99a3f80",
        "owner()": "8da5cb5b",
        "renounceOwnership()": "715018a6",
        "setAssetMatcher(bytes4,address)": "b39deb46",
        "setTransferProxy(bytes4,address)": "30c642f1",
        "transferOwnership(address)": "f2fde38b"
    },
    "gasEstimates": {
        "creation": {
            "codeDepositCost": "3567600",
            "executionCost": "4007",
            "totalCost": "3571607"
        },
        "external": {
            "__ExchangeSimpleV2_init(address,address)": "infinite",
            "cancel((address,((bytes4,bytes),uint256),address,((bytes4,bytes),uint256),uint256,uint256,uint256,bytes4,bytes))": "infinite",
            "directAcceptBid((address,uint256,bytes4,bytes,uint256,address,uint256,uint256,uint256,bytes4,bytes,bytes,uint256,uint256,bytes))": "infinite",
            "directPurchase((address,uint256,bytes4,bytes,uint256,address,uint256,uint256,uint256,bytes4,bytes,bytes,uint256,uint256,bytes))": "infinite",
            "fills(bytes32)": "1194",
            "matchOrders((address,((bytes4,bytes),uint256),address,((bytes4,bytes),uint256),uint256,uint256,uint256,bytes4,bytes),bytes,(address,((bytes4,bytes),uint256),address,((bytes4,bytes),uint256),uint256,uint256,uint256,bytes4,bytes),bytes)": "infinite",
            "owner()": "1070",
            "renounceOwnership()": "infinite",
            "setAssetMatcher(bytes4,address)": "infinite",
            "setTransferProxy(bytes4,address)": "infinite",
            "transferOwnership(address)": "infinite"
        }
    }
}