{
    "contractName": "ExchangeSimpleV2_1",
    "abi": [
        {
            "anonymous": false,
            "inputs": [
                {
                    "indexed": false,
                    "internalType": "bytes32",
                    "name": "hash",
                    "type": "bytes32"
                }
            ],
            "name": "Cancel",
            "type": "event"
        },
        {
            "anonymous": false,
            "inputs": [
                {
                    "indexed": false,
                    "internalType": "bytes32",
                    "name": "leftHash",
                    "type": "bytes32"
                },
                {
                    "indexed": false,
                    "internalType": "bytes32",
                    "name": "rightHash",
                    "type": "bytes32"
                },
                {
                    "indexed": false,
                    "internalType": "uint256",
                    "name": "newLeftFill",
                    "type": "uint256"
                },
                {
                    "indexed": false,
                    "internalType": "uint256",
                    "name": "newRightFill",
                    "type": "uint256"
                }
            ],
            "name": "Match",
            "type": "event"
        },
        {
            "anonymous": false,
            "inputs": [
                {
                    "indexed": true,
                    "internalType": "bytes4",
                    "name": "assetType",
                    "type": "bytes4"
                },
                {
                    "indexed": false,
                    "internalType": "address",
                    "name": "matcher",
                    "type": "address"
                }
            ],
            "name": "MatcherChange",
            "type": "event"
        },
        {
            "anonymous": false,
            "inputs": [
                {
                    "indexed": true,
                    "internalType": "address",
                    "name": "previousOwner",
                    "type": "address"
                },
                {
                    "indexed": true,
                    "internalType": "address",
                    "name": "newOwner",
                    "type": "address"
                }
            ],
            "name": "OwnershipTransferred",
            "type": "event"
        },
        {
            "anonymous": false,
            "inputs": [
                {
                    "indexed": true,
                    "internalType": "bytes4",
                    "name": "assetType",
                    "type": "bytes4"
                },
                {
                    "indexed": false,
                    "internalType": "address",
                    "name": "proxy",
                    "type": "address"
                }
            ],
            "name": "ProxyChange",
            "type": "event"
        },
        {
            "inputs": [
                {
                    "internalType": "address",
                    "name": "_transferProxy",
                    "type": "address"
                },
                {
                    "internalType": "address",
                    "name": "_erc20TransferProxy",
                    "type": "address"
                }
            ],
            "name": "__ExchangeSimpleV2_init",
            "outputs": [],
            "stateMutability": "nonpayable",
            "type": "function"
        },
        {
            "inputs": [
                {
                    "components": [
                        {
                            "internalType": "address",
                            "name": "maker",
                            "type": "address"
                        },
                        {
                            "components": [
                                {
                                    "components": [
                                        {
                                            "internalType": "bytes4",
                                            "name": "assetClass",
                                            "type": "bytes4"
                                        },
                                        {
                                            "internalType": "bytes",
                                            "name": "data",
                                            "type": "bytes"
                                        }
                                    ],
                                    "internalType": "struct LibAsset.AssetType",
                                    "name": "assetType",
                                    "type": "tuple"
                                },
                                {
                                    "internalType": "uint256",
                                    "name": "value",
                                    "type": "uint256"
                                }
                            ],
                            "internalType": "struct LibAsset.Asset",
                            "name": "makeAsset",
                            "type": "tuple"
                        },
                        {
                            "internalType": "address",
                            "name": "taker",
                            "type": "address"
                        },
                        {
                            "components": [
                                {
                                    "components": [
                                        {
                                            "internalType": "bytes4",
                                            "name": "assetClass",
                                            "type": "bytes4"
                                        },
                                        {
                                            "internalType": "bytes",
                                            "name": "data",
                                            "type": "bytes"
                                        }
                                    ],
                                    "internalType": "struct LibAsset.AssetType",
                                    "name": "assetType",
                                    "type": "tuple"
                                },
                                {
                                    "internalType": "uint256",
                                    "name": "value",
                                    "type": "uint256"
                                }
                            ],
                            "internalType": "struct LibAsset.Asset",
                            "name": "takeAsset",
                            "type": "tuple"
                        },
                        {
                            "internalType": "uint256",
                            "name": "salt",
                            "type": "uint256"
                        },
                        {
                            "internalType": "uint256",
                            "name": "start",
                            "type": "uint256"
                        },
                        {
                            "internalType": "uint256",
                            "name": "end",
                            "type": "uint256"
                        },
                        {
                            "internalType": "bytes4",
                            "name": "dataType",
                            "type": "bytes4"
                        },
                        {
                            "internalType": "bytes",
                            "name": "data",
                            "type": "bytes"
                        }
                    ],
                    "internalType": "struct LibOrder.Order",
                    "name": "order",
                    "type": "tuple"
                }
            ],
            "name": "cancel",
            "outputs": [],
            "stateMutability": "nonpayable",
            "type": "function"
        },
        {
            "inputs": [
                {
                    "components": [
                        {
                            "internalType": "address",
                            "name": "bidMaker",
                            "type": "address"
                        },
                        {
                            "internalType": "uint256",
                            "name": "bidNftAmount",
                            "type": "uint256"
                        },
                        {
                            "internalType": "bytes4",
                            "name": "nftAssetClass",
                            "type": "bytes4"
                        },
                        {
                            "internalType": "bytes",
                            "name": "nftData",
                            "type": "bytes"
                        },
                        {
                            "internalType": "uint256",
                            "name": "bidPaymentAmount",
                            "type": "uint256"
                        },
                        {
                            "internalType": "address",
                            "name": "paymentToken",
                            "type": "address"
                        },
                        {
                            "internalType": "uint256",
                            "name": "bidSalt",
                            "type": "uint256"
                        },
                        {
                            "internalType": "uint256",
                            "name": "bidStart",
                            "type": "uint256"
                        },
                        {
                            "internalType": "uint256",
                            "name": "bidEnd",
                            "type": "uint256"
                        },
                        {
                            "internalType": "bytes4",
                            "name": "bidDataType",
                            "type": "bytes4"
                        },
                        {
                            "internalType": "bytes",
                            "name": "bidData",
                            "type": "bytes"
                        },
                        {
                            "internalType": "bytes",
                            "name": "bidSignature",
                            "type": "bytes"
                        },
                        {
                            "internalType": "uint256",
                            "name": "sellOrderPaymentAmount",
                            "type": "uint256"
                        },
                        {
                            "internalType": "uint256",
                            "name": "sellOrderNftAmount",
                            "type": "uint256"
                        },
                        {
                            "internalType": "bytes",
                            "name": "sellOrderData",
                            "type": "bytes"
                        }
                    ],
                    "internalType": "struct LibDirectTransfer.AcceptBid",
                    "name": "direct",
                    "type": "tuple"
                }
            ],
            "name": "directAcceptBid",
            "outputs": [],
            "stateMutability": "payable",
            "type": "function"
        },
        {
            "inputs": [
                {
                    "components": [
                        {
                            "internalType": "address",
                            "name": "sellOrderMaker",
                            "type": "address"
                        },
                        {
                            "internalType": "uint256",
                            "name": "sellOrderNftAmount",
                            "type": "uint256"
                        },
                        {
                            "internalType": "bytes4",
                            "name": "nftAssetClass",
                            "type": "bytes4"
                        },
                        {
                            "internalType": "bytes",
                            "name": "nftData",
                            "type": "bytes"
                        },
                        {
                            "internalType": "uint256",
                            "name": "sellOrderPaymentAmount",
                            "type": "uint256"
                        },
                        {
                            "internalType": "address",
                            "name": "paymentToken",
                            "type": "address"
                        },
                        {
                            "internalType": "uint256",
                            "name": "sellOrderSalt",
                            "type": "uint256"
                        },
                        {
                            "internalType": "uint256",
                            "name": "sellOrderStart",
                            "type": "uint256"
                        },
                        {
                            "internalType": "uint256",
                            "name": "sellOrderEnd",
                            "type": "uint256"
                        },
                        {
                            "internalType": "bytes4",
                            "name": "sellOrderDataType",
                            "type": "bytes4"
                        },
                        {
                            "internalType": "bytes",
                            "name": "sellOrderData",
                            "type": "bytes"
                        },
                        {
                            "internalType": "bytes",
                            "name": "sellOrderSignature",
                            "type": "bytes"
                        },
                        {
                            "internalType": "uint256",
                            "name": "buyOrderPaymentAmount",
                            "type": "uint256"
                        },
                        {
                            "internalType": "uint256",
                            "name": "buyOrderNftAmount",
                            "type": "uint256"
                        },
                        {
                            "internalType": "bytes",
                            "name": "buyOrderData",
                            "type": "bytes"
                        }
                    ],
                    "internalType": "struct LibDirectTransfer.Purchase",
                    "name": "direct",
                    "type": "tuple"
                }
            ],
            "name": "directPurchase",
            "outputs": [],
            "stateMutability": "payable",
            "type": "function"
        },
        {
            "inputs": [
                {
                    "internalType": "bytes32",
                    "name": "",
                    "type": "bytes32"
                }
            ],
            "name": "fills",
            "outputs": [
                {
                    "internalType": "uint256",
                    "name": "",
                    "type": "uint256"
                }
            ],
            "stateMutability": "view",
            "type": "function"
        },
        {
            "inputs": [],
            "name": "getSomething",
            "outputs": [
                {
                    "internalType": "uint256",
                    "name": "",
                    "type": "uint256"
                }
            ],
            "stateMutability": "pure",
            "type": "function"
        },
        {
            "inputs": [
                {
                    "components": [
                        {
                            "internalType": "address",
                            "name": "maker",
                            "type": "address"
                        },
                        {
                            "components": [
                                {
                                    "components": [
                                        {
                                            "internalType": "bytes4",
                                            "name": "assetClass",
                                            "type": "bytes4"
                                        },
                                        {
                                            "internalType": "bytes",
                                            "name": "data",
                                            "type": "bytes"
                                        }
                                    ],
                                    "internalType": "struct LibAsset.AssetType",
                                    "name": "assetType",
                                    "type": "tuple"
                                },
                                {
                                    "internalType": "uint256",
                                    "name": "value",
                                    "type": "uint256"
                                }
                            ],
                            "internalType": "struct LibAsset.Asset",
                            "name": "makeAsset",
                            "type": "tuple"
                        },
                        {
                            "internalType": "address",
                            "name": "taker",
                            "type": "address"
                        },
                        {
                            "components": [
                                {
                                    "components": [
                                        {
                                            "internalType": "bytes4",
                                            "name": "assetClass",
                                            "type": "bytes4"
                                        },
                                        {
                                            "internalType": "bytes",
                                            "name": "data",
                                            "type": "bytes"
                                        }
                                    ],
                                    "internalType": "struct LibAsset.AssetType",
                                    "name": "assetType",
                                    "type": "tuple"
                                },
                                {
                                    "internalType": "uint256",
                                    "name": "value",
                                    "type": "uint256"
                                }
                            ],
                            "internalType": "struct LibAsset.Asset",
                            "name": "takeAsset",
                            "type": "tuple"
                        },
                        {
                            "internalType": "uint256",
                            "name": "salt",
                            "type": "uint256"
                        },
                        {
                            "internalType": "uint256",
                            "name": "start",
                            "type": "uint256"
                        },
                        {
                            "internalType": "uint256",
                            "name": "end",
                            "type": "uint256"
                        },
                        {
                            "internalType": "bytes4",
                            "name": "dataType",
                            "type": "bytes4"
                        },
                        {
                            "internalType": "bytes",
                            "name": "data",
                            "type": "bytes"
                        }
                    ],
                    "internalType": "struct LibOrder.Order",
                    "name": "orderLeft",
                    "type": "tuple"
                },
                {
                    "internalType": "bytes",
                    "name": "signatureLeft",
                    "type": "bytes"
                },
                {
                    "components": [
                        {
                            "internalType": "address",
                            "name": "maker",
                            "type": "address"
                        },
                        {
                            "components": [
                                {
                                    "components": [
                                        {
                                            "internalType": "bytes4",
                                            "name": "assetClass",
                                            "type": "bytes4"
                                        },
                                        {
                                            "internalType": "bytes",
                                            "name": "data",
                                            "type": "bytes"
                                        }
                                    ],
                                    "internalType": "struct LibAsset.AssetType",
                                    "name": "assetType",
                                    "type": "tuple"
                                },
                                {
                                    "internalType": "uint256",
                                    "name": "value",
                                    "type": "uint256"
                                }
                            ],
                            "internalType": "struct LibAsset.Asset",
                            "name": "makeAsset",
                            "type": "tuple"
                        },
                        {
                            "internalType": "address",
                            "name": "taker",
                            "type": "address"
                        },
                        {
                            "components": [
                                {
                                    "components": [
                                        {
                                            "internalType": "bytes4",
                                            "name": "assetClass",
                                            "type": "bytes4"
                                        },
                                        {
                                            "internalType": "bytes",
                                            "name": "data",
                                            "type": "bytes"
                                        }
                                    ],
                                    "internalType": "struct LibAsset.AssetType",
                                    "name": "assetType",
                                    "type": "tuple"
                                },
                                {
                                    "internalType": "uint256",
                                    "name": "value",
                                    "type": "uint256"
                                }
                            ],
                            "internalType": "struct LibAsset.Asset",
                            "name": "takeAsset",
                            "type": "tuple"
                        },
                        {
                            "internalType": "uint256",
                            "name": "salt",
                            "type": "uint256"
                        },
                        {
                            "internalType": "uint256",
                            "name": "start",
                            "type": "uint256"
                        },
                        {
                            "internalType": "uint256",
                            "name": "end",
                            "type": "uint256"
                        },
                        {
                            "internalType": "bytes4",
                            "name": "dataType",
                            "type": "bytes4"
                        },
                        {
                            "internalType": "bytes",
                            "name": "data",
                            "type": "bytes"
                        }
                    ],
                    "internalType": "struct LibOrder.Order",
                    "name": "orderRight",
                    "type": "tuple"
                },
                {
                    "internalType": "bytes",
                    "name": "signatureRight",
                    "type": "bytes"
                }
            ],
            "name": "matchOrders",
            "outputs": [],
            "stateMutability": "payable",
            "type": "function"
        },
        {
            "inputs": [],
            "name": "owner",
            "outputs": [
                {
                    "internalType": "address",
                    "name": "",
                    "type": "address"
                }
            ],
            "stateMutability": "view",
            "type": "function"
        },
        {
            "inputs": [],
            "name": "renounceOwnership",
            "outputs": [],
            "stateMutability": "nonpayable",
            "type": "function"
        },
        {
            "inputs": [
                {
                    "internalType": "bytes4",
                    "name": "assetType",
                    "type": "bytes4"
                },
                {
                    "internalType": "address",
                    "name": "matcher",
                    "type": "address"
                }
            ],
            "name": "setAssetMatcher",
            "outputs": [],
            "stateMutability": "nonpayable",
            "type": "function"
        },
        {
            "inputs": [
                {
                    "internalType": "bytes4",
                    "name": "assetType",
                    "type": "bytes4"
                },
                {
                    "internalType": "address",
                    "name": "proxy",
                    "type": "address"
                }
            ],
            "name": "setTransferProxy",
            "outputs": [],
            "stateMutability": "nonpayable",
            "type": "function"
        },
        {
            "inputs": [
                {
                    "internalType": "address",
                    "name": "newOwner",
                    "type": "address"
                }
            ],
            "name": "transferOwnership",
            "outputs": [],
            "stateMutability": "nonpayable",
            "type": "function"
        }
    ],
    "bytecode": "608060405234801561001057600080fd5b506145d3806100206000396000f3fe6080604052600436106100a75760003560e01c80638da5cb5b116100645780638da5cb5b1461015457806398f1b95214610176578063b39deb4614610196578063e2864fe3146101b6578063e99a3f80146101d6578063f2fde38b146101e9576100a7565b806301ec3b6c146100ac5780630d5f7d35146100d757806320158c44146100ec57806330c642f11461010c57806367d49a3b1461012c578063715018a61461013f575b600080fd5b3480156100b857600080fd5b506100c1610209565b6040516100ce9190614006565b60405180910390f35b6100ea6100e5366004613b55565b61020e565b005b3480156100f857600080fd5b506100c1610107366004613b04565b610533565b34801561011857600080fd5b506100ea610127366004613b38565b610546565b6100ea61013a366004613b55565b610616565b34801561014b57600080fd5b506100ea6108f9565b34801561016057600080fd5b506101696109a5565b6040516100ce9190613f7d565b34801561018257600080fd5b506100ea610191366004613ab2565b6109b4565b3480156101a257600080fd5b506100ea6101b1366004613b38565b610a7a565b3480156101c257600080fd5b506100ea6101d1366004613e5b565b610b3e565b6100ea6101e4366004613e8d565b610bff565b3480156101f557600080fd5b506100ea610204366004613a4d565b610c15565b600a90565b600061022861022360c0840160a08501613a4d565b610d18565b604080516101208101909152909150600090806102486020860186613a4d565b6001600160a01b031681526020016040518060400160405280604051806040016040528088604001602081019061027f9190613b1c565b6001600160e01b031916815260200161029b60608a018a614398565b8080601f0160208091040260200160405190810160405280939291908181526020018383808284376000920182905250939094525050918352506020888101359281019290925291835282810191909152604080518082018252868152608080890135938201939093529083015260c080870135606084015260e08701359183019190915261010086013560a08301520161033e61014086016101208701613b1c565b6001600160e01b031916815260200161035b610140860186614398565b8080601f0160208091040260200160405190810160405280939291908181526020018383808284376000920182905250939094525050604080516101208101825282815281518083018352878152610180890135602082810191909152820152808201839052815160808101835294955091939192506060808401929182918282019182916103ef91908c01908c01613b1c565b6001600160e01b031916815260200161040b60608b018b614398565b8080601f0160208091040260200160405190810160405280939291908181526020018383808284376000920182905250939094525050918352506101a0890135602092830152918352820181905260408201819052606082015260800161048261047d61014088016101208901613b1c565b610d7e565b6001600160e01b031916815260200161049f6101c0870187614398565b8080601f01602080910402602001604051908101604052809392919081815260200183838082843760009201919091525050509152509050610523826104e9610160870187614398565b8080601f016020809104026020016040519081016040528093929190818152602001838380828437600092019190915250610e0492505050565b61052d8282610e1b565b50505050565b61012f6020526000908152604090205481565b61054e611079565b6001600160a01b031661055f6109a5565b6001600160a01b0316146105a8576040805162461bcd60e51b8152602060048201819052602482015260008051602061457e833981519152604482015290519081900360640190fd5b6001600160e01b031982166000818152609760205260409081902080546001600160a01b0319166001600160a01b038516179055517f4b5aced933c0c9a88aeac3f0b3b72c5aaf75df8ebaf53225773248c4c31535939061060a908490613f7d565b60405180910390a25050565b600061062b61022360c0840160a08501613a4d565b6040805161012081019091529091506000908061064b6020860186613a4d565b6001600160a01b0316815260200160405180604001604052808581526020018660800135815250815260200160006001600160a01b03168152602001604051806040016040528060405180604001604052808860400160208101906106b09190613b1c565b6001600160e01b03191681526020016106cc60608a018a614398565b8080601f016020809104026020016040519081016040528093929190818152602001838380828437600092019190915250505091525081526020878101359181019190915290825260c08601359082015260e08501356040820152610100850135606082015260800161074761014086016101208701613b1c565b6001600160e01b0319168152602001610764610140860186614398565b8080601f016020809104026020016040519081016040528093929190818152602001838380828437600092018290525093909452505060408051610120810182528281528151608081018352949550919391925060208301919081908181019081906107d69060608c01908c01613b1c565b6001600160e01b03191681526020016107f260608b018b614398565b8080601f0160208091040260200160405190810160405280939291908181526020018383808284376000920182905250939094525050918352506101a08901356020928301529183528281018290526040805180820182528881526101808a013592810192909252830152606082018190526080820181905260a082015260c00161088861047d61014088016101208901613b1c565b6001600160e01b03191681526020016108a56101c0870187614398565b8080601f016020809104026020016040519081016040528093929190818152602001838380828437600092019190915250505091525090506108ef826104e9610160870187614398565b61052d8183610e1b565b610901611079565b6001600160a01b03166109126109a5565b6001600160a01b03161461095b576040805162461bcd60e51b8152602060048201819052602482015260008051602061457e833981519152604482015290519081900360640190fd5b6033546040516000916001600160a01b0316907f8be0079c531659141344cd1fd0a4f28419497f9722a3daafe3b4186f6b6457e0908390a3603380546001600160a01b0319169055565b6033546001600160a01b031690565b600054610100900460ff16806109cd57506109cd61107d565b806109db575060005460ff16155b610a165760405162461bcd60e51b815260040180806020018281038252602e81526020018061450d602e913960400191505060405180910390fd5b600054610100900460ff16158015610a41576000805460ff1961ff0019909116610100171660011790555b610a4961108e565b610a51611130565b610a59611229565b610a6383836112f9565b8015610a75576000805461ff00191690555b505050565b610a82611079565b6001600160a01b0316610a936109a5565b6001600160a01b031614610adc576040805162461bcd60e51b8152602060048201819052602482015260008051602061457e833981519152604482015290519081900360640190fd5b6001600160e01b031982166000818152606560205260409081902080546001600160a01b0319166001600160a01b038516179055517fd2bf91075f105d0fd80328da28e20ebdad1c1261839711183bc29a44cbe6c72f9061060a908490613f7d565b80516001600160a01b0316610b51611079565b6001600160a01b031614610b805760405162461bcd60e51b8152600401610b7790614308565b60405180910390fd5b6080810151610ba15760405162461bcd60e51b8152600401610b77906140ce565b6000610bac826113a3565b600081815261012f6020526040908190206000199055519091507fe8d9861dbc9c663ed3accd261bbe2fe01e0d3d9e5f51fa38523b265c7757a93a90610bf3908390614006565b60405180910390a15050565b610c0b8484848461152b565b61052d8483610e1b565b610c1d611079565b6001600160a01b0316610c2e6109a5565b6001600160a01b031614610c77576040805162461bcd60e51b8152602060048201819052602482015260008051602061457e833981519152604482015290519081900360640190fd5b6001600160a01b038116610cbc5760405162461bcd60e51b81526004018080602001828103825260268152602001806144786026913960400191505060405180910390fd5b6033546040516001600160a01b038084169216907f8be0079c531659141344cd1fd0a4f28419497f9722a3daafe3b4186f6b6457e090600090a3603380546001600160a01b0319166001600160a01b0392909216919091179055565b610d206136e9565b610d286136e9565b6001600160a01b038316610d45576355575f5d60e11b8152610d76565b6322ba176160e21b8152604051610d60908490602001613f7d565b60408051601f1981840301815291905260208201525b90505b919050565b60006001600160e01b03198216632fa3cfd360e01b1415610dc057507f1b18cdf6be079a715471a3705c2d89e1d730066ce14915cb307cc3e4a90c92d4610d79565b6001600160e01b03198216630d8c66fb60e11b1415610e0057507f2fa3cfd36fc2a11048e46a7dac1916c392731880ba073f2b7f10566b2fd6133e610d79565b5090565b610e0d826115f7565b610e1782826116c1565b5050565b600080610e288484611970565b915091506000806000610e3b8787611a09565b925092509250600080610fa06040518060a0016040528060405180604001604052808b8152602001876000015181525081526020018760000151815260200187602001518152602001609760008b600001516001600160e01b0319166001600160e01b031916815260200190815260200160002060009054906101000a90046001600160a01b03166001600160a01b031681526020018b600001516001600160a01b03168152506040518060a0016040528060405180604001604052808b8152602001886020015181525081526020018760000151815260200187602001518152602001609760008b600001516001600160e01b0319166001600160e01b031916815260200190815260200160002060009054906101000a90046001600160a01b03166001600160a01b031681526020018b600001516001600160a01b0316815250610f9b8a600001518a600001518e60e001518e60e001518c8c611ab8565b611b08565b885191935091506001600160e01b0319166355575f5d60e11b141561101f5785516001600160e01b0319166355575f5d60e11b1415610fde57600080fd5b81341015610ffe5760405162461bcd60e51b8152600401610b77906142e0565b8134111561101a5761101a6110133484611b58565b3390611bba565b61106e565b85516001600160e01b0319166355575f5d60e11b141561106e57803410156110595760405162461bcd60e51b8152600401610b77906142e0565b8034111561106e5761106e6110133483611b58565b505050505050505050565b3390565b600061108830611c52565b15905090565b600054610100900460ff16806110a757506110a761107d565b806110b5575060005460ff16155b6110f05760405162461bcd60e51b815260040180806020018281038252602e81526020018061450d602e913960400191505060405180910390fd5b600054610100900460ff1615801561111b576000805460ff1961ff0019909116610100171660011790555b801561112d576000805461ff00191690555b50565b600054610100900460ff1680611149575061114961107d565b80611157575060005460ff16155b6111925760405162461bcd60e51b815260040180806020018281038252602e81526020018061450d602e913960400191505060405180910390fd5b600054610100900460ff161580156111bd576000805460ff1961ff0019909116610100171660011790555b60006111c7611079565b603380546001600160a01b0319166001600160a01b038316908117909155604051919250906000907f8be0079c531659141344cd1fd0a4f28419497f9722a3daafe3b4186f6b6457e0908290a350801561112d576000805461ff001916905550565b600054610100900460ff1680611242575061124261107d565b80611250575060005460ff16155b61128b5760405162461bcd60e51b815260040180806020018281038252602e81526020018061450d602e913960400191505060405180910390fd5b600054610100900460ff161580156112b6576000805460ff1961ff0019909116610100171660011790555b61111b6040518060400160405280600881526020016745786368616e676560c01b815250604051806040016040528060018152602001601960f91b815250611c58565b60976020527f4532fa16f071d6234e30e1a1e69b9806f04095edf37a1ca7a25c8d6af7861cc080546001600160a01b039283166001600160a01b0319918216179091557f30a684095c937b5aa064dcf94f9903a7d808e3efb22d8389dbd43080ad4ed3d5805493909216928116831790915563025ceed960e61b6000527f4b5822151ea34b7c8d9e37c3e466bcecb631efe6a9f26a4a4054110a93dd316f80549091169091179055565b60e08101516000906001600160e01b031916632611a13360e11b14806113d7575060e08201516001600160e01b0319908116145b1561144c5781516020830151516113ed90611d18565b6060840151516113fc90611d18565b846080015160405160200180856001600160a01b03168152602001848152602001838152602001828152602001945050505050604051602081830303815290604052805190602001209050610d79565b815160208301515161145d90611d18565b60608401515161146c90611d18565b846080015185610100015160405160200180866001600160a01b0316815260200185815260200184815260200183815260200180602001828103825283818151815260200191508051906020019080838360005b838110156114d85781810151838201526020016114c0565b50505050905090810190601f1680156115055780820380516001836020036101000a031916815260200191505b509650505050505050604051602081830303815290604052805190602001209050610d79565b6115358484610e04565b61153f8282610e04565b60408401516001600160a01b03161561159b5781516001600160a01b03161561159b5783604001516001600160a01b031682600001516001600160a01b03161461159b5760405162461bcd60e51b8152600401610b779061429d565b60408201516001600160a01b03161561052d5783516001600160a01b03161561052d5783600001516001600160a01b031682604001516001600160a01b03161461052d5760405162461bcd60e51b8152600401610b7790614172565b60a0810151158061160b5750428160a00151105b61165c576040805162461bcd60e51b815260206004820152601d60248201527f4f726465722073746172742076616c69646174696f6e206661696c6564000000604482015290519081900360640190fd5b60c081015115806116705750428160c00151115b61112d576040805162461bcd60e51b815260206004820152601b60248201527f4f7264657220656e642076616c69646174696f6e206661696c65640000000000604482015290519081900360640190fd5b60808201516117465781516001600160a01b0316156117415781516001600160a01b03166116ed611079565b6001600160a01b031614611741576040805162461bcd60e51b815260206004820152601660248201527536b0b5b2b91034b9903737ba103a3c1039b2b73232b960511b604482015290519081900360640190fd5b610e17565b81516001600160a01b0316611759611079565b6001600160a01b031614610e1757600061177283611d82565b905061178a83600001516001600160a01b0316611c52565b156118c6578251630b135d3f60e11b906001600160a01b0316631626ba7e6117b184611e72565b856040518363ffffffff1660e01b81526004018083815260200180602001828103825283818151815260200191508051906020019080838360005b838110156118045781810151838201526020016117ec565b50505050905090810190601f1680156118315780820380516001836020036101000a031916815260200191505b50935050505060206040518083038186803b15801561184f57600080fd5b505afa158015611863573d6000803e3d6000fd5b505050506040513d602081101561187957600080fd5b50516001600160e01b031916146118c15760405162461bcd60e51b815260040180806020018281038252602b8152602001806144e2602b913960400191505060405180910390fd5b610a75565b82516001600160a01b03166118e4836118de84611e72565b90611ebe565b6001600160a01b0316146119295760405162461bcd60e51b81526004018080602001828103825260228152602001806144c06022913960400191505060405180910390fd5b82516001600160a01b0316610a75576040805162461bcd60e51b815260206004820152600860248201526737379036b0b5b2b960c11b604482015290519081900360640190fd5b6119786136e9565b6119806136e9565b6020840151516060840151516119969190611f3e565b80519092506001600160e01b0319166119c15760405162461bcd60e51b8152600401610b7790614271565b6060840151516020840151516119d79190611f3e565b80519091506001600160e01b031916611a025760405162461bcd60e51b8152600401610b7790614271565b9250929050565b611a11613701565b611a19613701565b611a2161372b565b6000611a2c866113a3565b90506000611a39866113a3565b90506000611a45611079565b88519091506001600160a01b0316611a64576001600160a01b03811688525b86516001600160a01b0316611a80576001600160a01b03811687525b611a8988611f7e565b9550611a9487611f7e565b9450611aac888885858a604001518a6040015161215e565b93505050509250925092565b611ac0613745565b611aca87876122c2565b81602001906002811115611ada57fe5b90816002811115611ae757fe5b81525050611afc858585858560200151612393565b81529695505050505050565b600080611b278560000151866080015186608001518860600151612549565b611b438460000151856080015187608001518760600151612549565b50509151602090810151915101519092909150565b600082821115611baf576040805162461bcd60e51b815260206004820152601e60248201527f536166654d6174683a207375627472616374696f6e206f766572666c6f770000604482015290519081900360640190fd5b508082035b92915050565b6040516000906001600160a01b0384169083908381818185875af1925050503d8060008114611c05576040519150601f19603f3d011682016040523d82523d6000602084013e611c0a565b606091505b5050905080610a75576040805162461bcd60e51b815260206004820152600f60248201526e1d1c985b9cd9995c8819985a5b1959608a1b604482015290519081900360640190fd5b3b151590565b600054610100900460ff1680611c715750611c7161107d565b80611c7f575060005460ff16155b611cba5760405162461bcd60e51b815260040180806020018281038252602e81526020018061450d602e913960400191505060405180910390fd5b600054610100900460ff16158015611ce5576000805460ff1961ff0019909116610100171660011790555b825160208085019190912083519184019190912060c99190915560ca558015610a75576000805461ff0019169055505050565b8051602091820151805190830120604080517f452a0dc408cb0d27ffc3b3caff933a5208040a53a9dbecd8d89cad2c0d40e00c818601526001600160e01b031990931683820152606080840192909252805180840390920182526080909201909152805191012090565b60007f477ed43b8020849b755512278536c3766a3b4ab547519949a75f483372493f8d8260000151611db7846020015161295b565b8460400151611dc9866060015161295b565b86608001518760a001518860c001518960e001518a610100015180519060200120604051602001808b81526020018a6001600160a01b03168152602001898152602001886001600160a01b03168152602001878152602001868152602001858152602001848152602001836001600160e01b03191681526020018281526020019a5050505050505050505050604051602081830303815290604052805190602001209050919050565b6000611e7c6129cb565b82604051602001808061190160f01b81525060020183815260200182815260200192505050604051602081830303815290604052805190602001209050919050565b60008151604114611f16576040805162461bcd60e51b815260206004820152601f60248201527f45434453413a20696e76616c6964207369676e6174757265206c656e67746800604482015290519081900360640190fd5b60208201516040830151606084015160001a611f3486828585612a0b565b9695505050505050565b611f466136e9565b6000611f528484612c58565b80519091506001600160e01b031916611f7757611f6f8385612c58565b915050611bb4565b9050611bb4565b611f86613701565b60e08201516001600160e01b031916632611a13360e11b1415611fd2576000826101000151806020019051810190611fbe9190613c4e565b805183526020908101519083015250612145565b60e08201516001600160e01b0319166323d235ef60e01b141561202a57600082610100015180602001905181019061200a9190613ce9565b805183526020808201519084015260409081015115159083015250612145565b60e08201516001600160e01b031916632fa3cfd360e01b14156120a25760008261010001518060200190518101906120629190613df3565b90506120718160000151612e74565b8252602081015160408201516120879190612ed7565b60208301526001604083015260609081015190820152612145565b60e08201516001600160e01b031916630d8c66fb60e11b14156121115760008261010001518060200190518101906120da9190613d95565b90506120e98160000151612e74565b8252602081015160408201516120ff9190612ed7565b60208301525060006040820152612145565b60e08201516001600160e01b0319908116141561212d57612145565b60405162461bcd60e51b8152600401610b779061423a565b805151610d795781516121579061303a565b8152919050565b61216661372b565b60006121768860800151876130d5565b905060006121888860800151876130d5565b9050600061219a8a8a85858a8a6130fa565b9050600081602001511180156121b05750805115155b6121cc5760405162461bcd60e51b8152600401610b77906141e2565b60808a01511561221f5785156121fe5780516121e9908490613180565b600089815261012f602052604090205561221f565b602081015161220e908490613180565b600089815261012f60205260409020555b60808901511561227257841561225457602081015161223f908390613180565b600088815261012f6020526040902055612272565b8051612261908390613180565b600088815261012f60205260409020555b602081015181516040517f956cd63ee4cdcd81fda5f0ec7c6c36dceda99e1b412f4a650a5d26055dc3c450926122ad928c928c92919061400f565b60405180910390a19998505050505050505050565b60006001600160e01b031983166355575f5d60e11b14156122e557506001611bb4565b6001600160e01b031982166355575f5d60e11b141561230657506002611bb4565b6001600160e01b031983166322ba176160e21b141561232757506001611bb4565b6001600160e01b031982166322ba176160e21b141561234857506002611bb4565b6001600160e01b0319831663025ceed960e61b141561236957506001611bb4565b6001600160e01b0319821663025ceed960e61b141561238a57506002611bb4565b50600092915050565b60006001600160e01b03198616632fa3cfd360e01b148015906123c757506001600160e01b03198516632fa3cfd360e01b14155b80156123e457506001600160e01b03198616630d8c66fb60e11b14155b801561240157506001600160e01b03198516630d8c66fb60e11b14155b1561240e57506000612540565b6000612422856020015185602001516131da565b90506000600184600281111561243457fe5b1415612491575060608401516001600160e01b03198816630d8c66fb60e11b14801561247057506001600160e01b03198716632fa3cfd360e01b145b61248c5760405162461bcd60e51b8152600401610b77906140fc565b612502565b600284600281111561249f57fe5b14156124f7575060608501516001600160e01b03198716630d8c66fb60e11b1480156124db57506001600160e01b03198816632fa3cfd360e01b145b61248c5760405162461bcd60e51b8152600401610b779061414a565b600092505050612540565b6000811180156125125750818110155b801561252057506103e88111155b61253c5760405162461bcd60e51b8152600401610b7790614124565b9150505b95945050505050565b8351516001600160e01b0319166339d690a360e11b141561268f576000808560000151602001518060200190518101906125839190613a85565b9150915085602001516001146125ab5760405162461bcd60e51b8152600401610b77906141b6565b6001600160a01b03851630141561262357604051632142170760e11b81526001600160a01b038316906342842e0e906125ec90309088908690600401613f91565b600060405180830381600087803b15801561260657600080fd5b505af115801561261a573d6000803e3d6000fd5b50505050612688565b604051637b84dc8360e11b81526001600160a01b0384169063f709b9069061265590859089908990879060040161406d565b600060405180830381600087803b15801561266f57600080fd5b505af1158015612683573d6000803e3d6000fd5b505050505b505061052d565b8351516001600160e01b0319166322ba176160e21b14156127ed5760008460000151602001518060200190518101906126c89190613a69565b90506001600160a01b03841630141561277f57602085015160405163a9059cbb60e01b81526001600160a01b0383169163a9059cbb9161270c918791600401613fed565b602060405180830381600087803b15801561272657600080fd5b505af115801561273a573d6000803e3d6000fd5b505050506040513d601f19601f8201168201806040525081019061275e9190613aea565b61277a5760405162461bcd60e51b8152600401610b779061420b565b6127e7565b602085015160405163776062c360e01b81526001600160a01b0384169163776062c3916127b49185918991899160040161406d565b600060405180830381600087803b1580156127ce57600080fd5b505af11580156127e2573d6000803e3d6000fd5b505050505b5061052d565b8351516001600160e01b03191663025ceed960e61b14156128aa576000808560000151602001518060200190518101906128279190613a85565b90925090506001600160a01b038516301415612872576020860151604051637921219560e11b81526001600160a01b0384169163f242432a916125ec91309189918791600401613fb5565b6020860151604051639c1c2ee960e01b81526001600160a01b03851691639c1c2ee9916126559186918a918a9188919060040161402a565b8351516001600160e01b0319166355575f5d60e11b14156128f3576001600160a01b03821630146128ee5760208401516128ee906001600160a01b03841690611bba565b61052d565b6040516354bc0cf160e01b81526001600160a01b038216906354bc0cf19061292390879087908790600401614352565b600060405180830381600087803b15801561293d57600080fd5b505af1158015612951573d6000803e3d6000fd5b5050505050505050565b60007fdb6f72e915676cfc289da13bc4ece054fd17b1df6d77ffc4a60510718c236b0861298b8360000151611d18565b8360200151604051602001808481526020018381526020018281526020019350505050604051602081830303815290604052805190602001209050919050565b6000612a067f8b73c3c69bb8fe3d512ecc4cf759cc79239f7b179b0ffacaa9a75d522b39400f6129f9613261565b612a01613267565b61326d565b905090565b60007f7fffffffffffffffffffffffffffffff5d576e7357a4501ddfe92f46681b20a0821115612a6c5760405162461bcd60e51b815260040180806020018281038252602281526020018061449e6022913960400191505060405180910390fd5b6000601e8560ff161115612b46576004850360ff16601b1480612a9557506004850360ff16601c145b612ad05760405162461bcd60e51b815260040180806020018281038252602281526020018061453b6022913960400191505060405180910390fd5b6001612adb876132cf565b60048703868660405160008152602001604052604051808581526020018460ff1681526020018381526020018281526020019450505050506020604051602081039080840390855afa158015612b35573d6000803e3d6000fd5b505050602060405103519050612bfd565b8460ff16601b1480612b5b57508460ff16601c145b612b965760405162461bcd60e51b815260040180806020018281038252602281526020018061453b6022913960400191505060405180910390fd5b60018686868660405160008152602001604052604051808581526020018460ff1681526020018381526020018281526020019450505050506020604051602081039080840390855afa158015612bf0573d6000803e3d6000fd5b5050506020604051035190505b6001600160a01b038116612540576040805162461bcd60e51b815260206004820152601860248201527f45434453413a20696e76616c6964207369676e61747572650000000000000000604482015290519081900360640190fd5b612c606136e9565b825182516001600160e01b031982166355575f5d60e11b1415612ccb576001600160e01b031981166355575f5d60e11b1415612ca0578492505050611bb4565b5050604080518082018252600080825282516020818101909452908152918101919091529050611bb4565b6001600160e01b031982166322ba176160e21b1415612d10576001600160e01b031981166322ba176160e21b1415612ca057612d078585613320565b92505050611bb4565b6001600160e01b031982166339d690a360e11b1415612d4c576001600160e01b031981166339d690a360e11b1415612ca057612d078585613320565b6001600160e01b0319821663025ceed960e61b1415612d88576001600160e01b0319811663025ceed960e61b1415612ca057612d078585613320565b6001600160e01b031982166000908152606560205260409020546001600160a01b03168015612e3d576040516306d3f7cb60e41b81526001600160a01b03821690636d3f7cb090612ddf908990899060040161432d565b60006040518083038186803b158015612df757600080fd5b505afa158015612e0b573d6000803e3d6000fd5b505050506040513d6000823e601f3d908101601f19168201604052612e339190810190613b87565b9350505050611bb4565b6001600160e01b03198381169083161415612e5c57612e338686613320565b60405162461bcd60e51b8152600401610b7790614097565b6060808215610d765760408051600180825281830190925290816020015b612e9a613745565b815260200190600190039081612e92579050509050612eb88361337d565b81600081518110612ec557fe5b60200260200101819052509050919050565b606080600084118015612eea5750600083115b15612f65576040805160028082526060820190925290816020015b612f0d613745565b815260200190600190039081612f05579050509050612f2b8461337d565b81600081518110612f3857fe5b6020026020010181905250612f4c8361337d565b81600181518110612f5957fe5b60200260200101819052505b600084118015612f73575082155b15612fcc5760408051600180825281830190925290816020015b612f95613745565b815260200190600190039081612f8d579050509050612fb38461337d565b81600081518110612fc057fe5b60200260200101819052505b83158015612fda5750600083115b156130335760408051600180825281830190925290816020015b612ffc613745565b815260200190600190039081612ff457905050905061301a8361337d565b8160008151811061302757fe5b60200260200101819052505b9392505050565b60408051600180825281830190925260609160009190816020015b61305d613745565b815260200190600190039081613055579050509050828160008151811061308057fe5b6020026020010151600001906001600160a01b031690816001600160a01b031681525050612710816000815181106130b457fe5b6020908102919091018101516001600160601b039092169101529050919050565b6000826130e457506000611bb4565b50600090815261012f6020526040902054919050565b61310261372b565b6000806131108988876133a5565b915091506000806131228a89886133a5565b91509150838111156131555761314a84848c60200151602001518d606001516020015161341f565b945050505050611f34565b6131718b60200151602001518c606001516020015184846134a4565b9b9a5050505050505050505050565b600082820183811015613033576040805162461bcd60e51b815260206004820152601b60248201527f536166654d6174683a206164646974696f6e206f766572666c6f770000000000604482015290519081900360640190fd5b600080805b845181101561321a578481815181106131f457fe5b6020026020010151602001516001600160601b03168201915080806001019150506131df565b5060005b83518110156132595783818151811061323357fe5b6020026020010151602001516001600160601b031682019150808060010191505061321e565b509392505050565b60c95490565b60ca5490565b600083838361327a61352a565b3060405160200180868152602001858152602001848152602001838152602001826001600160a01b03168152602001955050505050506040516020818303038152906040528051906020012090509392505050565b604080517f19457468657265756d205369676e6564204d6573736167653a0a333200000000602080830191909152603c8083019490945282518083039094018452605c909101909152815191012090565b6133286136e9565b60208084015180519082012083820151805192019190912080821415613352578492505050611bb4565b5050604080518082018252600080825282516020808201909452908152918101919091529392505050565b613385613745565b8115610d79576001600160a01b038216815260a09190911c602082015290565b60008082156133e45760208086015101516133c09085611b58565b91506133dd8560600151602001518660200151602001518461352e565b9050613417565b6060850151602001516133f79085611b58565b90506134148560200151602001518660600151602001518361352e565b91505b935093915050565b61342761372b565b600061343485858561352e565b90508581111561348b576040805162461bcd60e51b815260206004820152601860248201527f66696c6c4c6566743a20756e61626c6520746f2066696c6c0000000000000000604482015290519081900360640190fd5b5050604080518082019091529384525050602082015290565b6134ac61372b565b60006134b983878761352e565b905083811115613510576040805162461bcd60e51b815260206004820152601960248201527f66696c6c52696768743a20756e61626c6520746f2066696c6c00000000000000604482015290519081900360640190fd5b604080518082019091529283526020830152509392505050565b4690565b600061353b84848461359a565b1561357e576040805162461bcd60e51b815260206004820152600e60248201526d3937bab73234b7339032b93937b960911b604482015290519081900360640190fd5b6135928361358c8685613629565b90613682565b949350505050565b6000826135e1576040805162461bcd60e51b815260206004820152601060248201526f6469766973696f6e206279207a65726f60801b604482015290519081900360640190fd5b8115806135ec575083155b156135f957506000613033565b6000838061360357fe5b85840990506136128584613629565b61361e826103e8613629565b101595945050505050565b60008261363857506000611bb4565b8282028284828161364557fe5b04146130335760405162461bcd60e51b815260040180806020018281038252602181526020018061455d6021913960400191505060405180910390fd5b60008082116136d8576040805162461bcd60e51b815260206004820152601a60248201527f536166654d6174683a206469766973696f6e206279207a65726f000000000000604482015290519081900360640190fd5b8183816136e157fe5b049392505050565b60408051808201909152600081526060602082015290565b60405180608001604052806060815260200160608152602001600015158152602001600081525090565b604051806040016040528060008152602001600081525090565b604080518082019091526000808252602082015290565b8035610d798161444c565b600082601f830112613777578081fd5b815160206001600160401b038083111561378d57fe5b61379a82838502016143dc565b838152828101908684016040808702890186018a10156137b8578788fd5b875b878110156138205781838c0312156137d0578889fd5b815182810181811088821117156137e357fe5b835283516137f08161444c565b8152838801516001600160601b038116811461380a578a8bfd5b81890152855293860193918101916001016137ba565b50919998505050505050505050565b80518015158114610d7957600080fd5b8035610d7981614461565b600082601f83011261385a578081fd5b813561386d613868826143ff565b6143dc565b818152846020838601011115613881578283fd5b816020850160208301379081016020019190915292915050565b60006101e082840312156138ad578081fd5b50919050565b600060408083850312156138c5578182fd5b80518181016001600160401b0382821081831117156138e057fe5b8184528294508535818111156138f557600080fd5b860180880385131561390657600080fd5b60808401838110838211171561391857fe5b90945283359361392785614461565b9382526020840135938185111561393d57600080fd5b6139498886830161384a565b60608501525050815260209384013593019290925292915050565b6000610120808385031215613977578182fd5b613980816143dc565b91505061398c8261375c565b815260208201356001600160401b03808211156139a857600080fd5b6139b4858386016138b3565b60208401526139c56040850161375c565b604084015260608401359150808211156139de57600080fd5b6139ea858386016138b3565b60608401526080840135608084015260a084013560a084015260c084013560c0840152613a1960e0850161383f565b60e084015261010091508184013581811115613a3457600080fd5b613a408682870161384a565b8385015250505092915050565b600060208284031215613a5e578081fd5b81356130338161444c565b600060208284031215613a7a578081fd5b81516130338161444c565b60008060408385031215613a97578081fd5b8251613aa28161444c565b6020939093015192949293505050565b60008060408385031215613ac4578182fd5b8235613acf8161444c565b91506020830135613adf8161444c565b809150509250929050565b600060208284031215613afb578081fd5b6130338261382f565b600060208284031215613b15578081fd5b5035919050565b600060208284031215613b2d578081fd5b813561303381614461565b60008060408385031215613b4a578182fd5b8235613acf81614461565b600060208284031215613b66578081fd5b81356001600160401b03811115613b7b578182fd5b6135928482850161389b565b60006020808385031215613b99578182fd5b82516001600160401b0380821115613baf578384fd5b9084019060408287031215613bc2578384fd5b604051604081018181108382111715613bd757fe5b6040528251613be581614461565b81528284015182811115613bf7578586fd5b80840193505086601f840112613c0b578485fd5b82519150613c1b613868836143ff565b8281528785848601011115613c2e578586fd5b613c3d83868301878701614420565b938101939093525090949350505050565b600060208284031215613c5f578081fd5b81516001600160401b0380821115613c75578283fd5b9083019060408286031215613c88578283fd5b604051604081018181108382111715613c9d57fe5b604052825182811115613cae578485fd5b613cba87828601613767565b825250602083015182811115613cce578485fd5b613cda87828601613767565b60208301525095945050505050565b600060208284031215613cfa578081fd5b81516001600160401b0380821115613d10578283fd5b9083019060608286031215613d23578283fd5b604051606081018181108382111715613d3857fe5b604052825182811115613d49578485fd5b613d5587828601613767565b825250602083015182811115613d69578485fd5b613d7587828601613767565b602083015250613d876040840161382f565b604082015295945050505050565b600060808284031215613da6578081fd5b604051608081018181106001600160401b0382111715613dc257fe5b8060405250825181526020830151602082015260408301516040820152606083015160608201528091505092915050565b600060a08284031215613e04578081fd5b60405160a081018181106001600160401b0382111715613e2057fe5b806040525082518152602083015160208201526040830151604082015260608301516060820152608083015160808201528091505092915050565b600060208284031215613e6c578081fd5b81356001600160401b03811115613e81578182fd5b61359284828501613964565b60008060008060808587031215613ea2578182fd5b84356001600160401b0380821115613eb8578384fd5b613ec488838901613964565b95506020870135915080821115613ed9578384fd5b613ee58883890161384a565b94506040870135915080821115613efa578384fd5b613f0688838901613964565b93506060870135915080821115613f1b578283fd5b50613f288782880161384a565b91505092959194509250565b600063ffffffff60e01b82511683526020820151604060208501528051806040860152613f68816060870160208501614420565b601f01601f1916939093016060019392505050565b6001600160a01b0391909116815260200190565b6001600160a01b039384168152919092166020820152604081019190915260600190565b6001600160a01b0394851681529290931660208301526040820152606081019190915260a06080820181905260009082015260c00190565b6001600160a01b03929092168252602082015260400190565b90815260200190565b93845260208401929092526040830152606082015260800190565b6001600160a01b03958616815293851660208501529190931660408301526060820192909252608081019190915260c060a0820181905260009082015260e00190565b6001600160a01b039485168152928416602084015292166040820152606081019190915260800190565b60208082526017908201527f6e6f7420666f756e64204941737365744d617463686572000000000000000000604082015260600190565b6020808252601490820152730c081cd85b1d0818d85b89dd081899481d5cd95960621b604082015260600190565b6020808252600e908201526d77726f6e6720563320747970653160901b604082015260600190565b6020808252600c908201526b77726f6e67206d617846656560a01b604082015260600190565b6020808252600e908201526d3bb937b733902b19903a3cb8329960911b604082015260600190565b60208082526024908201527f72696768744f726465722e74616b657220766572696669636174696f6e2066616040820152631a5b195960e21b606082015260800190565b60208082526012908201527132b9319b9918903b30b63ab29032b93937b960711b604082015260600190565b6020808252600f908201526e1b9bdd1a1a5b99c81d1bc8199a5b1b608a1b604082015260600190565b602080825260159082015274195c98cc8c081d1c985b9cd9995c8819985a5b1959605a1b604082015260600190565b60208082526017908201527f556e6b6e6f776e204f7264657220646174612074797065000000000000000000604082015260600190565b6020808252601290820152710c2e6e6cae8e640c8dedc4ee840dac2e8c6d60731b604082015260600190565b60208082526023908201527f6c6566744f726465722e74616b657220766572696669636174696f6e206661696040820152621b195960ea1b606082015260800190565b6020808252600e908201526d0dcdee840cadcdeeaced040cae8d60931b604082015260600190565b6020808252600b908201526a3737ba10309036b0b5b2b960a91b604082015260600190565b6000604082526143406040830185613f34565b82810360208401526125408185613f34565b60006060825284516040606084015261436e60a0840182613f34565b60209687015160808501526001600160a01b03958616968401969096525050911660409091015290565b6000808335601e198436030181126143ae578283fd5b8301803591506001600160401b038211156143c7578283fd5b602001915036819003821315611a0257600080fd5b6040518181016001600160401b03811182821017156143f757fe5b604052919050565b60006001600160401b0382111561441257fe5b50601f01601f191660200190565b60005b8381101561443b578181015183820152602001614423565b8381111561052d5750506000910152565b6001600160a01b038116811461112d57600080fd5b6001600160e01b03198116811461112d57600080fdfe4f776e61626c653a206e6577206f776e657220697320746865207a65726f206164647265737345434453413a20696e76616c6964207369676e6174757265202773272076616c75656f72646572207369676e617475726520766572696669636174696f6e206572726f72636f6e7472616374206f72646572207369676e617475726520766572696669636174696f6e206572726f72496e697469616c697a61626c653a20636f6e747261637420697320616c726561647920696e697469616c697a656445434453413a20696e76616c6964207369676e6174757265202776272076616c7565536166654d6174683a206d756c7469706c69636174696f6e206f766572666c6f774f776e61626c653a2063616c6c6572206973206e6f7420746865206f776e6572a2646970667358221220d4caae1fd9850a7b0c5cee2c910bf6c97279592732333c79f3ad6093a0ba279464736f6c63430007060033",
    "sourcePath": "c:/Users/SuperDev/Documents/Repos/protocol-contracts/exchange-v2/test/contracts/ExchangeSimpleV2_1.sol",
    "compiler": {
        "name": "solc",
        "version": "0.7.6+commit.7338295f"
    },
    "functionHashes": {
        "__ExchangeSimpleV2_init(address,address)": "98f1b952",
        "cancel((address,((bytes4,bytes),uint256),address,((bytes4,bytes),uint256),uint256,uint256,uint256,bytes4,bytes))": "e2864fe3",
        "directAcceptBid((address,uint256,bytes4,bytes,uint256,address,uint256,uint256,uint256,bytes4,bytes,bytes,uint256,uint256,bytes))": "67d49a3b",
        "directPurchase((address,uint256,bytes4,bytes,uint256,address,uint256,uint256,uint256,bytes4,bytes,bytes,uint256,uint256,bytes))": "0d5f7d35",
        "fills(bytes32)": "20158c44",
        "getSomething()": "01ec3b6c",
        "matchOrders((address,((bytes4,bytes),uint256),address,((bytes4,bytes),uint256),uint256,uint256,uint256,bytes4,bytes),bytes,(address,((bytes4,bytes),uint256),address,((bytes4,bytes),uint256),uint256,uint256,uint256,bytes4,bytes),bytes)": "e99a3f80",
        "owner()": "8da5cb5b",
        "renounceOwnership()": "715018a6",
        "setAssetMatcher(bytes4,address)": "b39deb46",
        "setTransferProxy(bytes4,address)": "30c642f1",
        "transferOwnership(address)": "f2fde38b"
    },
    "gasEstimates": {
        "creation": {
            "codeDepositCost": "3575000",
            "executionCost": "4015",
            "totalCost": "3579015"
        },
        "external": {
            "__ExchangeSimpleV2_init(address,address)": "infinite",
            "cancel((address,((bytes4,bytes),uint256),address,((bytes4,bytes),uint256),uint256,uint256,uint256,bytes4,bytes))": "infinite",
            "directAcceptBid((address,uint256,bytes4,bytes,uint256,address,uint256,uint256,uint256,bytes4,bytes,bytes,uint256,uint256,bytes))": "infinite",
            "directPurchase((address,uint256,bytes4,bytes,uint256,address,uint256,uint256,uint256,bytes4,bytes,bytes,uint256,uint256,bytes))": "infinite",
            "fills(bytes32)": "1216",
            "getSomething()": "229",
            "matchOrders((address,((bytes4,bytes),uint256),address,((bytes4,bytes),uint256),uint256,uint256,uint256,bytes4,bytes),bytes,(address,((bytes4,bytes),uint256),address,((bytes4,bytes),uint256),uint256,uint256,uint256,bytes4,bytes),bytes)": "infinite",
            "owner()": "1070",
            "renounceOwnership()": "infinite",
            "setAssetMatcher(bytes4,address)": "infinite",
            "setTransferProxy(bytes4,address)": "infinite",
            "transferOwnership(address)": "infinite"
        }
    }
}