{
    "contractName": "LibOrderTest",
    "abi": [
        {
            "inputs": [
                {
                    "components": [
                        {
                            "internalType": "address",
                            "name": "maker",
                            "type": "address"
                        },
                        {
                            "components": [
                                {
                                    "components": [
                                        {
                                            "internalType": "bytes4",
                                            "name": "assetClass",
                                            "type": "bytes4"
                                        },
                                        {
                                            "internalType": "bytes",
                                            "name": "data",
                                            "type": "bytes"
                                        }
                                    ],
                                    "internalType": "struct LibAsset.AssetType",
                                    "name": "assetType",
                                    "type": "tuple"
                                },
                                {
                                    "internalType": "uint256",
                                    "name": "value",
                                    "type": "uint256"
                                }
                            ],
                            "internalType": "struct LibAsset.Asset",
                            "name": "makeAsset",
                            "type": "tuple"
                        },
                        {
                            "internalType": "address",
                            "name": "taker",
                            "type": "address"
                        },
                        {
                            "components": [
                                {
                                    "components": [
                                        {
                                            "internalType": "bytes4",
                                            "name": "assetClass",
                                            "type": "bytes4"
                                        },
                                        {
                                            "internalType": "bytes",
                                            "name": "data",
                                            "type": "bytes"
                                        }
                                    ],
                                    "internalType": "struct LibAsset.AssetType",
                                    "name": "assetType",
                                    "type": "tuple"
                                },
                                {
                                    "internalType": "uint256",
                                    "name": "value",
                                    "type": "uint256"
                                }
                            ],
                            "internalType": "struct LibAsset.Asset",
                            "name": "takeAsset",
                            "type": "tuple"
                        },
                        {
                            "internalType": "uint256",
                            "name": "salt",
                            "type": "uint256"
                        },
                        {
                            "internalType": "uint256",
                            "name": "start",
                            "type": "uint256"
                        },
                        {
                            "internalType": "uint256",
                            "name": "end",
                            "type": "uint256"
                        },
                        {
                            "internalType": "bytes4",
                            "name": "dataType",
                            "type": "bytes4"
                        },
                        {
                            "internalType": "bytes",
                            "name": "data",
                            "type": "bytes"
                        }
                    ],
                    "internalType": "struct LibOrder.Order",
                    "name": "order",
                    "type": "tuple"
                },
                {
                    "internalType": "uint256",
                    "name": "fill",
                    "type": "uint256"
                },
                {
                    "internalType": "bool",
                    "name": "isMakeFill",
                    "type": "bool"
                }
            ],
            "name": "calculateRemaining",
            "outputs": [
                {
                    "internalType": "uint256",
                    "name": "makeAmount",
                    "type": "uint256"
                },
                {
                    "internalType": "uint256",
                    "name": "takeAmount",
                    "type": "uint256"
                }
            ],
            "stateMutability": "pure",
            "type": "function"
        },
        {
            "inputs": [
                {
                    "components": [
                        {
                            "internalType": "address",
                            "name": "maker",
                            "type": "address"
                        },
                        {
                            "components": [
                                {
                                    "components": [
                                        {
                                            "internalType": "bytes4",
                                            "name": "assetClass",
                                            "type": "bytes4"
                                        },
                                        {
                                            "internalType": "bytes",
                                            "name": "data",
                                            "type": "bytes"
                                        }
                                    ],
                                    "internalType": "struct LibAsset.AssetType",
                                    "name": "assetType",
                                    "type": "tuple"
                                },
                                {
                                    "internalType": "uint256",
                                    "name": "value",
                                    "type": "uint256"
                                }
                            ],
                            "internalType": "struct LibAsset.Asset",
                            "name": "makeAsset",
                            "type": "tuple"
                        },
                        {
                            "internalType": "address",
                            "name": "taker",
                            "type": "address"
                        },
                        {
                            "components": [
                                {
                                    "components": [
                                        {
                                            "internalType": "bytes4",
                                            "name": "assetClass",
                                            "type": "bytes4"
                                        },
                                        {
                                            "internalType": "bytes",
                                            "name": "data",
                                            "type": "bytes"
                                        }
                                    ],
                                    "internalType": "struct LibAsset.AssetType",
                                    "name": "assetType",
                                    "type": "tuple"
                                },
                                {
                                    "internalType": "uint256",
                                    "name": "value",
                                    "type": "uint256"
                                }
                            ],
                            "internalType": "struct LibAsset.Asset",
                            "name": "takeAsset",
                            "type": "tuple"
                        },
                        {
                            "internalType": "uint256",
                            "name": "salt",
                            "type": "uint256"
                        },
                        {
                            "internalType": "uint256",
                            "name": "start",
                            "type": "uint256"
                        },
                        {
                            "internalType": "uint256",
                            "name": "end",
                            "type": "uint256"
                        },
                        {
                            "internalType": "bytes4",
                            "name": "dataType",
                            "type": "bytes4"
                        },
                        {
                            "internalType": "bytes",
                            "name": "data",
                            "type": "bytes"
                        }
                    ],
                    "internalType": "struct LibOrder.Order",
                    "name": "order",
                    "type": "tuple"
                }
            ],
            "name": "hash",
            "outputs": [
                {
                    "internalType": "bytes32",
                    "name": "",
                    "type": "bytes32"
                }
            ],
            "stateMutability": "pure",
            "type": "function"
        },
        {
            "inputs": [
                {
                    "components": [
                        {
                            "internalType": "address",
                            "name": "maker",
                            "type": "address"
                        },
                        {
                            "components": [
                                {
                                    "components": [
                                        {
                                            "internalType": "bytes4",
                                            "name": "assetClass",
                                            "type": "bytes4"
                                        },
                                        {
                                            "internalType": "bytes",
                                            "name": "data",
                                            "type": "bytes"
                                        }
                                    ],
                                    "internalType": "struct LibAsset.AssetType",
                                    "name": "assetType",
                                    "type": "tuple"
                                },
                                {
                                    "internalType": "uint256",
                                    "name": "value",
                                    "type": "uint256"
                                }
                            ],
                            "internalType": "struct LibAsset.Asset",
                            "name": "makeAsset",
                            "type": "tuple"
                        },
                        {
                            "internalType": "address",
                            "name": "taker",
                            "type": "address"
                        },
                        {
                            "components": [
                                {
                                    "components": [
                                        {
                                            "internalType": "bytes4",
                                            "name": "assetClass",
                                            "type": "bytes4"
                                        },
                                        {
                                            "internalType": "bytes",
                                            "name": "data",
                                            "type": "bytes"
                                        }
                                    ],
                                    "internalType": "struct LibAsset.AssetType",
                                    "name": "assetType",
                                    "type": "tuple"
                                },
                                {
                                    "internalType": "uint256",
                                    "name": "value",
                                    "type": "uint256"
                                }
                            ],
                            "internalType": "struct LibAsset.Asset",
                            "name": "takeAsset",
                            "type": "tuple"
                        },
                        {
                            "internalType": "uint256",
                            "name": "salt",
                            "type": "uint256"
                        },
                        {
                            "internalType": "uint256",
                            "name": "start",
                            "type": "uint256"
                        },
                        {
                            "internalType": "uint256",
                            "name": "end",
                            "type": "uint256"
                        },
                        {
                            "internalType": "bytes4",
                            "name": "dataType",
                            "type": "bytes4"
                        },
                        {
                            "internalType": "bytes",
                            "name": "data",
                            "type": "bytes"
                        }
                    ],
                    "internalType": "struct LibOrder.Order",
                    "name": "order",
                    "type": "tuple"
                }
            ],
            "name": "hashKey",
            "outputs": [
                {
                    "internalType": "bytes32",
                    "name": "",
                    "type": "bytes32"
                }
            ],
            "stateMutability": "pure",
            "type": "function"
        },
        {
            "inputs": [
                {
                    "components": [
                        {
                            "internalType": "address",
                            "name": "maker",
                            "type": "address"
                        },
                        {
                            "components": [
                                {
                                    "components": [
                                        {
                                            "internalType": "bytes4",
                                            "name": "assetClass",
                                            "type": "bytes4"
                                        },
                                        {
                                            "internalType": "bytes",
                                            "name": "data",
                                            "type": "bytes"
                                        }
                                    ],
                                    "internalType": "struct LibAsset.AssetType",
                                    "name": "assetType",
                                    "type": "tuple"
                                },
                                {
                                    "internalType": "uint256",
                                    "name": "value",
                                    "type": "uint256"
                                }
                            ],
                            "internalType": "struct LibAsset.Asset",
                            "name": "makeAsset",
                            "type": "tuple"
                        },
                        {
                            "internalType": "address",
                            "name": "taker",
                            "type": "address"
                        },
                        {
                            "components": [
                                {
                                    "components": [
                                        {
                                            "internalType": "bytes4",
                                            "name": "assetClass",
                                            "type": "bytes4"
                                        },
                                        {
                                            "internalType": "bytes",
                                            "name": "data",
                                            "type": "bytes"
                                        }
                                    ],
                                    "internalType": "struct LibAsset.AssetType",
                                    "name": "assetType",
                                    "type": "tuple"
                                },
                                {
                                    "internalType": "uint256",
                                    "name": "value",
                                    "type": "uint256"
                                }
                            ],
                            "internalType": "struct LibAsset.Asset",
                            "name": "takeAsset",
                            "type": "tuple"
                        },
                        {
                            "internalType": "uint256",
                            "name": "salt",
                            "type": "uint256"
                        },
                        {
                            "internalType": "uint256",
                            "name": "start",
                            "type": "uint256"
                        },
                        {
                            "internalType": "uint256",
                            "name": "end",
                            "type": "uint256"
                        },
                        {
                            "internalType": "bytes4",
                            "name": "dataType",
                            "type": "bytes4"
                        },
                        {
                            "internalType": "bytes",
                            "name": "data",
                            "type": "bytes"
                        }
                    ],
                    "internalType": "struct LibOrder.Order",
                    "name": "order",
                    "type": "tuple"
                }
            ],
            "name": "hashKeyOnChain",
            "outputs": [
                {
                    "internalType": "bytes32",
                    "name": "",
                    "type": "bytes32"
                }
            ],
            "stateMutability": "pure",
            "type": "function"
        },
        {
            "inputs": [
                {
                    "internalType": "address",
                    "name": "maker",
                    "type": "address"
                },
                {
                    "components": [
                        {
                            "components": [
                                {
                                    "internalType": "bytes4",
                                    "name": "assetClass",
                                    "type": "bytes4"
                                },
                                {
                                    "internalType": "bytes",
                                    "name": "data",
                                    "type": "bytes"
                                }
                            ],
                            "internalType": "struct LibAsset.AssetType",
                            "name": "assetType",
                            "type": "tuple"
                        },
                        {
                            "internalType": "uint256",
                            "name": "value",
                            "type": "uint256"
                        }
                    ],
                    "internalType": "struct LibAsset.Asset",
                    "name": "makeAsset",
                    "type": "tuple"
                },
                {
                    "components": [
                        {
                            "components": [
                                {
                                    "internalType": "bytes4",
                                    "name": "assetClass",
                                    "type": "bytes4"
                                },
                                {
                                    "internalType": "bytes",
                                    "name": "data",
                                    "type": "bytes"
                                }
                            ],
                            "internalType": "struct LibAsset.AssetType",
                            "name": "assetType",
                            "type": "tuple"
                        },
                        {
                            "internalType": "uint256",
                            "name": "value",
                            "type": "uint256"
                        }
                    ],
                    "internalType": "struct LibAsset.Asset",
                    "name": "takeAsset",
                    "type": "tuple"
                },
                {
                    "internalType": "uint256",
                    "name": "salt",
                    "type": "uint256"
                }
            ],
            "name": "hashV1",
            "outputs": [
                {
                    "internalType": "bytes32",
                    "name": "",
                    "type": "bytes32"
                }
            ],
            "stateMutability": "pure",
            "type": "function"
        },
        {
            "inputs": [
                {
                    "internalType": "address",
                    "name": "maker",
                    "type": "address"
                },
                {
                    "components": [
                        {
                            "components": [
                                {
                                    "internalType": "bytes4",
                                    "name": "assetClass",
                                    "type": "bytes4"
                                },
                                {
                                    "internalType": "bytes",
                                    "name": "data",
                                    "type": "bytes"
                                }
                            ],
                            "internalType": "struct LibAsset.AssetType",
                            "name": "assetType",
                            "type": "tuple"
                        },
                        {
                            "internalType": "uint256",
                            "name": "value",
                            "type": "uint256"
                        }
                    ],
                    "internalType": "struct LibAsset.Asset",
                    "name": "makeAsset",
                    "type": "tuple"
                },
                {
                    "components": [
                        {
                            "components": [
                                {
                                    "internalType": "bytes4",
                                    "name": "assetClass",
                                    "type": "bytes4"
                                },
                                {
                                    "internalType": "bytes",
                                    "name": "data",
                                    "type": "bytes"
                                }
                            ],
                            "internalType": "struct LibAsset.AssetType",
                            "name": "assetType",
                            "type": "tuple"
                        },
                        {
                            "internalType": "uint256",
                            "name": "value",
                            "type": "uint256"
                        }
                    ],
                    "internalType": "struct LibAsset.Asset",
                    "name": "takeAsset",
                    "type": "tuple"
                },
                {
                    "internalType": "uint256",
                    "name": "salt",
                    "type": "uint256"
                },
                {
                    "internalType": "bytes",
                    "name": "data",
                    "type": "bytes"
                }
            ],
            "name": "hashV2",
            "outputs": [
                {
                    "internalType": "bytes32",
                    "name": "",
                    "type": "bytes32"
                }
            ],
            "stateMutability": "pure",
            "type": "function"
        },
        {
            "inputs": [
                {
                    "components": [
                        {
                            "internalType": "address",
                            "name": "maker",
                            "type": "address"
                        },
                        {
                            "components": [
                                {
                                    "components": [
                                        {
                                            "internalType": "bytes4",
                                            "name": "assetClass",
                                            "type": "bytes4"
                                        },
                                        {
                                            "internalType": "bytes",
                                            "name": "data",
                                            "type": "bytes"
                                        }
                                    ],
                                    "internalType": "struct LibAsset.AssetType",
                                    "name": "assetType",
                                    "type": "tuple"
                                },
                                {
                                    "internalType": "uint256",
                                    "name": "value",
                                    "type": "uint256"
                                }
                            ],
                            "internalType": "struct LibAsset.Asset",
                            "name": "makeAsset",
                            "type": "tuple"
                        },
                        {
                            "internalType": "address",
                            "name": "taker",
                            "type": "address"
                        },
                        {
                            "components": [
                                {
                                    "components": [
                                        {
                                            "internalType": "bytes4",
                                            "name": "assetClass",
                                            "type": "bytes4"
                                        },
                                        {
                                            "internalType": "bytes",
                                            "name": "data",
                                            "type": "bytes"
                                        }
                                    ],
                                    "internalType": "struct LibAsset.AssetType",
                                    "name": "assetType",
                                    "type": "tuple"
                                },
                                {
                                    "internalType": "uint256",
                                    "name": "value",
                                    "type": "uint256"
                                }
                            ],
                            "internalType": "struct LibAsset.Asset",
                            "name": "takeAsset",
                            "type": "tuple"
                        },
                        {
                            "internalType": "uint256",
                            "name": "salt",
                            "type": "uint256"
                        },
                        {
                            "internalType": "uint256",
                            "name": "start",
                            "type": "uint256"
                        },
                        {
                            "internalType": "uint256",
                            "name": "end",
                            "type": "uint256"
                        },
                        {
                            "internalType": "bytes4",
                            "name": "dataType",
                            "type": "bytes4"
                        },
                        {
                            "internalType": "bytes",
                            "name": "data",
                            "type": "bytes"
                        }
                    ],
                    "internalType": "struct LibOrder.Order",
                    "name": "order",
                    "type": "tuple"
                }
            ],
            "name": "validate",
            "outputs": [],
            "stateMutability": "view",
            "type": "function"
        }
    ],
    "bytecode": "608060405234801561001057600080fd5b50610def806100206000396000f3fe608060405234801561001057600080fd5b506004361061007d5760003560e01c8063475f4e4e1161005b578063475f4e4e146100d15780634fa8d605146100f257806387774dd914610105578063bcba5fb0146100825761007d565b8063058dbeef1461008257806327c4ea47146100ab578063384a6c9d146100be575b600080fd5b610095610090366004610b46565b61011a565b6040516100a29190610c74565b60405180910390f35b6100956100b9366004610a2e565b610135565b6100956100cc366004610b46565b610184565b6100e46100df366004610b79565b610197565b6040516100a2929190610c7d565b610095610100366004610aa7565b6101ba565b610118610113366004610b46565b61020c565b005b600061012d61012883610caf565b610220565b90505b919050565b60008461014585600001516103a8565b8451610150906103a8565b846040516020016101649493929190610bd6565b604051602081830303815290604052805190602001209050949350505050565b600061012d61019283610caf565b610412565b6000806101ad6101a686610caf565b8585610502565b915091505b935093915050565b6000856101ca86600001516103a8565b85516101d5906103a8565b85856040516020016101eb959493929190610bfc565b60405160208183030381529060405280519060200120905095945050505050565b61021d61021882610caf565b61057b565b50565b60e08101516000906001600160e01b031916632611a13360e11b1480610254575060e08201516001600160e01b0319908116145b156102c957815160208301515161026a906103a8565b606084015151610279906103a8565b846080015160405160200180856001600160a01b03168152602001848152602001838152602001828152602001945050505050604051602081830303815290604052805190602001209050610130565b81516020830151516102da906103a8565b6060840151516102e9906103a8565b846080015185610100015160405160200180866001600160a01b0316815260200185815260200184815260200183815260200180602001828103825283818151815260200191508051906020019080838360005b8381101561035557818101518382015260200161033d565b50505050905090810190601f1680156103825780820380516001836020036101000a031916815260200191505b509650505050505050604051602081830303815290604052805190602001209050610130565b8051602091820151805190830120604080517f452a0dc408cb0d27ffc3b3caff933a5208040a53a9dbecd8d89cad2c0d40e00c818601526001600160e01b031990931683820152606080840192909252805180840390920182526080909201909152805191012090565b60007f477ed43b8020849b755512278536c3766a3b4ab547519949a75f483372493f8d82600001516104478460200151610645565b84604001516104598660600151610645565b86608001518760a001518860c001518960e001518a610100015180519060200120604051602001808b81526020018a6001600160a01b03168152602001898152602001886001600160a01b03168152602001878152602001868152602001858152602001848152602001836001600160e01b03191681526020018281526020019a5050505050505050505050604051602081830303815290604052805190602001209050919050565b600080821561054157602080860151015161051d90856106b5565b915061053a85606001516020015186602001516020015184610717565b90506101b2565b60608501516020015161055490856106b5565b905061057185602001516020015186606001516020015183610717565b9150935093915050565b60a0810151158061058f5750428160a00151105b6105e0576040805162461bcd60e51b815260206004820152601d60248201527f4f726465722073746172742076616c69646174696f6e206661696c6564000000604482015290519081900360640190fd5b60c081015115806105f45750428160c00151115b61021d576040805162461bcd60e51b815260206004820152601b60248201527f4f7264657220656e642076616c69646174696f6e206661696c65640000000000604482015290519081900360640190fd5b60007fdb6f72e915676cfc289da13bc4ece054fd17b1df6d77ffc4a60510718c236b0861067583600001516103a8565b8360200151604051602001808481526020018381526020018281526020019350505050604051602081830303815290604052805190602001209050919050565b60008282111561070c576040805162461bcd60e51b815260206004820152601e60248201527f536166654d6174683a207375627472616374696f6e206f766572666c6f770000604482015290519081900360640190fd5b508082035b92915050565b6000610724848484610783565b15610767576040805162461bcd60e51b815260206004820152600e60248201526d3937bab73234b7339032b93937b960911b604482015290519081900360640190fd5b61077b836107758685610814565b9061086d565b949350505050565b6000826107ca576040805162461bcd60e51b815260206004820152601060248201526f6469766973696f6e206279207a65726f60801b604482015290519081900360640190fd5b8115806107d5575083155b156107e25750600061080d565b600083806107ec57fe5b85840990506107fb8584610814565b610807826103e8610814565b10159150505b9392505050565b60008261082357506000610711565b8282028284828161083057fe5b041461080d5760405162461bcd60e51b8152600401808060200182810382526021815260200180610d996021913960400191505060405180910390fd5b60008082116108c3576040805162461bcd60e51b815260206004820152601a60248201527f536166654d6174683a206469766973696f6e206279207a65726f000000000000604482015290519081900360640190fd5b8183816108cc57fe5b049392505050565b80356001600160a01b038116811461013057600080fd5b80356001600160e01b03198116811461013057600080fd5b600082601f830112610913578081fd5b813567ffffffffffffffff81111561092757fe5b61093a601f8201601f1916602001610c8b565b81815284602083860101111561094e578283fd5b816020850160208301379081016020019190915292915050565b6000604080838503121561097a578182fd5b805181810167ffffffffffffffff828210818311171561099657fe5b8184528294508535818111156109ab57600080fd5b86018088038513156109bc57600080fd5b6080840183811083821117156109ce57fe5b85526109d9816108eb565b835260208101359450818511156109ef57600080fd5b6109fb88868301610903565b60608501525050815260209384013593019290925292915050565b60006101208284031215610a28578081fd5b50919050565b60008060008060808587031215610a43578384fd5b610a4c856108d4565b9350602085013567ffffffffffffffff80821115610a68578485fd5b610a7488838901610968565b94506040870135915080821115610a89578384fd5b50610a9687828801610968565b949793965093946060013593505050565b600080600080600060a08688031215610abe578081fd5b610ac7866108d4565b9450602086013567ffffffffffffffff80821115610ae3578283fd5b610aef89838a01610968565b95506040880135915080821115610b04578283fd5b610b1089838a01610968565b9450606088013593506080880135915080821115610b2c578283fd5b50610b3988828901610903565b9150509295509295909350565b600060208284031215610b57578081fd5b813567ffffffffffffffff811115610b6d578182fd5b61077b84828501610a16565b600080600060608486031215610b8d578283fd5b833567ffffffffffffffff811115610ba3578384fd5b610baf86828701610a16565b9350506020840135915060408401358015158114610bcb578182fd5b809150509250925092565b6001600160a01b0394909416845260208401929092526040830152606082015260800190565b600060018060a01b03871682526020868184015285604084015284606084015260a0608084015283518060a0850152825b81811015610c495785810183015185820160c001528201610c2d565b81811115610c5a578360c083870101525b50601f01601f19169290920160c001979650505050505050565b90815260200190565b918252602082015260400190565b60405181810167ffffffffffffffff81118282101715610ca757fe5b604052919050565b6000610120808336031215610cc2578182fd5b610ccb81610c8b565b9050610cd6836108d4565b8152602083013567ffffffffffffffff80821115610cf2578384fd5b610cfe36838701610968565b6020840152610d0f604086016108d4565b60408401526060850135915080821115610d27578384fd5b610d3336838701610968565b60608401526080850135608084015260a085013560a084015260c085013560c0840152610d6260e086016108eb565b60e084015261010091508185013581811115610d7c578485fd5b610d8836828801610903565b838501525050508091505091905056fe536166654d6174683a206d756c7469706c69636174696f6e206f766572666c6f77a2646970667358221220e6ca1435862dc9d791f99e820a13bd34613bc27ea9f074d1d40f2818ad40d32564736f6c63430007060033",
    "sourcePath": "c:/Users/SuperDev/Documents/Repos/protocol-contracts/exchange-v2/test/contracts/LibOrderTest.sol",
    "compiler": {
        "name": "solc",
        "version": "0.7.6+commit.7338295f"
    },
    "functionHashes": {
        "calculateRemaining((address,((bytes4,bytes),uint256),address,((bytes4,bytes),uint256),uint256,uint256,uint256,bytes4,bytes),uint256,bool)": "475f4e4e",
        "hash((address,((bytes4,bytes),uint256),address,((bytes4,bytes),uint256),uint256,uint256,uint256,bytes4,bytes))": "384a6c9d",
        "hashKey((address,((bytes4,bytes),uint256),address,((bytes4,bytes),uint256),uint256,uint256,uint256,bytes4,bytes))": "058dbeef",
        "hashKeyOnChain((address,((bytes4,bytes),uint256),address,((bytes4,bytes),uint256),uint256,uint256,uint256,bytes4,bytes))": "bcba5fb0",
        "hashV1(address,((bytes4,bytes),uint256),((bytes4,bytes),uint256),uint256)": "27c4ea47",
        "hashV2(address,((bytes4,bytes),uint256),((bytes4,bytes),uint256),uint256,bytes)": "4fa8d605",
        "validate((address,((bytes4,bytes),uint256),address,((bytes4,bytes),uint256),uint256,uint256,uint256,bytes4,bytes))": "87774dd9"
    },
    "gasEstimates": {
        "creation": {
            "codeDepositCost": "713400",
            "executionCost": "747",
            "totalCost": "714147"
        },
        "external": {
            "calculateRemaining((address,((bytes4,bytes),uint256),address,((bytes4,bytes),uint256),uint256,uint256,uint256,bytes4,bytes),uint256,bool)": "infinite",
            "hash((address,((bytes4,bytes),uint256),address,((bytes4,bytes),uint256),uint256,uint256,uint256,bytes4,bytes))": "infinite",
            "hashKey((address,((bytes4,bytes),uint256),address,((bytes4,bytes),uint256),uint256,uint256,uint256,bytes4,bytes))": "infinite",
            "hashKeyOnChain((address,((bytes4,bytes),uint256),address,((bytes4,bytes),uint256),uint256,uint256,uint256,bytes4,bytes))": "infinite",
            "hashV1(address,((bytes4,bytes),uint256),((bytes4,bytes),uint256),uint256)": "infinite",
            "hashV2(address,((bytes4,bytes),uint256),((bytes4,bytes),uint256),uint256,bytes)": "infinite",
            "validate((address,((bytes4,bytes),uint256),address,((bytes4,bytes),uint256),uint256,uint256,uint256,bytes4,bytes))": "infinite"
        }
    }
}